101 0420000132313801041107291600A094101US BANK NA             TEST COMPANY                   
5225TEST COMPANY                       1231380104PPDTEST BUYS 110801110801    1098765430000001
627021200025998412345        0011900000OA313          AYDEN DERS              0098765434200001
627021200025998412345        0009900000OA235          DYLAN HUNTER            0098765434200002
627021200025998412345        0015100000OA357          COLTON LOWE             0098765434200003
627021200025998412345        0026600000OA264          ISAIAH CARPENTER        0098765434200004
627021200025998412345        0025500000OA363          COOPER BARNETT          0098765434200005
627021200025998412345        0022800000OA298          KATHERINE GRAVES        0098765434200006
627021200025998412345        0016100000OA332          JORDAN FRANKLIN         0098765434200007
627021200025998412345        0022400000OA270          JACOB SIMPSON           0098765434200008
627021200025998412345        0008900000OA268          ADAM WILLIS             0098765434200009
627021200025998412345        0026600000OA354          ISAIAH CARPENTER        0098765434200010
627021200025998412345        0026600000OA333          ISAIAH CARPENTER        0098765434200011
627021200025998412345        0029700000OA250          JOSE JORDAN             0098765434200012
627021200025998412345        0026900000OA300          JULIAN PERKINS          0098765434200013
627021200025998412345        0029000000OA359          JACK GAS                0098765434200014
627021200025998412345        0029900000OA281          SOFIA WATSON            0098765434200015
627021200025998412345        0023800000OA316          ARIANNA KING            0098765434200016
627021200025998412345        0029400000OA292          AYDEN SIMPSON           0098765434200017
627021200025998412345        0024700000OA319          SOPHIE HENRY            0098765434200018
627021200025998412345        0005900000OA267          MAKAYLA TERRY           0098765434200019
627021200025998412345        0016100000OA257          JORDAN FRANKLIN         0098765434200020
627021200025998412345        0016600000OA349          JASMINE CARTER          0098765434200021
627021200025998412345        0015800000OA352          JACOB LEE               0098765434200022
627021200025998412345        0022900000OA233          LIAM RTINEZ             0098765434200023
627021200025998412345        0018200000OA283          LILY ROBERTSON          0098765434200024
627021200025998412345        0028200000OA360          MORGAN NELSON           0098765434200025
627021200025998412345        0018700000OA345          LUCAS THOMPSON          0098765434200026
627021200025998412345        0022800000OA368          NOAH                    0098765434200027
627021200025998412345        0007600000OA340          ARIANNA LONG            0098765434200028
627021200025998412345        0029000000OA338          JACK GAS                0098765434200029
627021200025998412345        0020700000OA272          MORGAN FOX              0098765434200030
627021200025998412345        0025500000OA342          COOPER BARNETT          0098765434200031
627021200025998412345        0018500000OA224          JESSICA SILVA           0098765434200032
627021200025998412345        0007800000OA273          JASMINE CARTER          0098765434200033
627021200025998412345        0011700000OA299          ISABELLE ERRY           0098765434200034
627021200025998412345        0006300000OA263          ZACHARY MEDINA          0098765434200035
627021200025998412345        0001800000OA266          MATTHEW ALLEN           0098765434200036
627021200025998412345        0015000000OA312          BROOKE SUTTON           0098765434200037
627021200025998412345        0006600000OA242          ABIGAIL EVANS           0098765434200038
627021200025998412345        0028000000OA304          ISAAC JORDAN            0098765434200039
627021200025998412345        0007800000OA269          JUAN GILBERT            0098765434200040
627021200025998412345        0020800000OA249          KEVIN CASTILLO          0098765434200041
627021200025998412345        0010600000OA311          EVAN HARVEY             0098765434200042
627021200025998412345        0019500000OA318          JESUS BRADLEY           0098765434200043
627021200025998412345        0008100000OA260          MARIAH HERNANDEZ        0098765434200044
627021200025998412345        0007600000OA361          ARIANNA LONG            0098765434200045
627021200025998412345        0003700000OA265          ARIANNA BISHOP          0098765434200046
627021200025998412345        0005900000OA254          CARLOS WILLIS           0098765434200047
627021200025998412345        0025800000OA337          ISABELLA GREGORY        0098765434200048
627021200025998412345        0011600000OA307          ALLISON SUTTON          0098765434200049
627021200025998412345        0016200000OA290          COOPER LEZ              0098765434200050
627021200025998412345        0010000000OA335          SOPHIA BAILEY           0098765434200051
627021200025998412345        0017700000OA288          CHRISTIAN PEARSON       0098765434200052
627021200025998412345        0028000000OA367          ISAAC JORDAN            0098765434200053
627021200025998412345        0026100000OA244          LUKE CRAIG              0098765434200054
627021200025998412345        0008300000OA278          GRACE HOWARD            0098765434200055
627021200025998412345        0020300000OA228          SOPHIE NICHOLS          0098765434200056
627021200025998412345        0027400000OA275          ALEXA WALKER            0098765434200057
627021200025998412345        0006700000OA310          ADRIAN HOLLAND          0098765434200058
627021200025998412345        0015400000OA314          GABRIEL MEDINA          0098765434200059
627021200025998412345        0021600000OA344          KEVIN WOOD              0098765434200060
627021200025998412345        0004700000OA262          KADEN POWELL            0098765434200061
627021200025998412345        0009300000OA232          AVA GIBSON              0098765434200062
627021200025998412345        0018700000OA303          LUCAS THOMPSON          0098765434200063
627021200025998412345        0008500000OA308          ANGEL MCKINNEY          0098765434200064
627021200025998412345        0002100000OA274          SEAN BRADLEY            0098765434200065
627021200025998412345        0019100000OA245          IAN HOLLAND             0098765434200066
627021200025998412345        0017500000OA323          ISABELLE FOX            0098765434200067
627021200025998412345        0027400000OA355          ALEXA WALKER            0098765434200068
627021200025998412345        0026100000OA226          JASON ANDERSON          0098765434200069
627021200025998412345        0008600000OA243          GIANNA RUIZ             0098765434200070
627021200025998412345        0011900000OA348          AYDEN DERS              0098765434200071
627021200025998412345        0015100000OA336          COLTON LOWE             0098765434200072
627021200025998412345        0002200000OA239          ARIANA THOMPSON         0098765434200073
627021200025998412345        0025500000OA294          COOPER BARNETT          0098765434200074
627021200025998412345        0028400000OA325          CAMILA HOLMES           0098765434200075
627021200025998412345        0025800000OA358          ISABELLA GREGORY        0098765434200076
627021200025998412345        0025800000OA259          HUNTER MILLS            0098765434200077
627021200025998412345        0010000000OA279          SOPHIA BAILEY           0098765434200078
627021200025998412345        0025600000OA293          ANGEL ORTIZ             0098765434200079
627021200025998412345        0004600000OA252          JOSIAH GRIFFIN          0098765434200080
627021200025998412345        0011200000OA364          SEBASTIAN MCDONALD      0098765434200081
627021200025998412345        0022800000OA309          NOAH                    0098765434200082
627021200025998412345        0020500000OA324          AUBREY GRANT            0098765434200083
627021200025998412345        0022800000OA256          KEVIN PERKINS           0098765434200084
627021200025998412345        0014600000OA238          HENRY DAY               0098765434200085
627021200025998412345        0011200000OA297          SEBASTIAN MCDONALD      0098765434200086
627021200025998412345        0021100000OA282          CARLOS GREGORY          0098765434200087
627021200025998412345        0009600000OA350          JACOB MORRISON          0098765434200088
627021200025998412345        0009000000OA291          NATALIE JACOBS          0098765434200089
627021200025998412345        0025800000OA285          ISABELLA GREGORY        0098765434200090
627021200025998412345        0028200000OA339          MORGAN NELSON           0098765434200091
627021200025998412345        0016100000OA353          JORDAN FRANKLIN         0098765434200092
627021200025998412345        0016400000OA322          ELI BOWMAN              0098765434200093
627021200025998412345        0003700000OA253          ANGEL SMITH             0098765434200094
627021200025998412345        0026300000OA247          DIEGO WASHINGTON        0098765434200095
627021200025998412345        0001900000OA328          ANGEL BROOKS            0098765434200096
627021200025998412345        0015100000OA236          BAILEY PEREZ            0098765434200097
627021200025998412345        0021600000OA301          KEVIN WOOD              0098765434200098
627021200025998412345        0015800000OA331          JACOB LEE               0098765434200099
627021200025998412345        0011200000OA343          SEBASTIAN MCDONALD      0098765434200100
627021200025998412345        0026100000OA330          LUKE CRAIG              0098765434200101
627021200025998412345        0016000000OA280          ABIGAIL ELTON           0098765434200102
627021200025998412345        0010000000OA356          SOPHIA BAILEY           0098765434200103
627021200025998412345        0029400000OA251          JAYDEN LYNCH            0098765434200104
627021200025998412345        0011600000OA321          DESTINY MCDANIEL        0098765434200105
627021200025998412345        0016600000OA315          JASMINE CARTER          0098765434200106
627021200025998412345        0004000000OA306          MARY MARSHALL           0098765434200107
627021200025998412345        0025600000OA362          ANGEL ORTIZ             0098765434200108
627021200025998412345        0020800000OA258          SYDNEY REYES            0098765434200109
627021200025998412345        0022800000OA347          NOAH                    0098765434200110
627021200025998412345        0006100000OA248          SYDNEY BUTLER           0098765434200111
627021200025998412345        0015500000OA327          SOFIA GOMEZ             0098765434200112
627021200025998412345        0017100000OA240          MARIA MITCHELL          0098765434200113
627021200025998412345        0029500000OA241          MICHAEL WALLACE         0098765434200114
627021200025998412345        0015100000OA305          HAYDEN DES              0098765434200115
627021200025998412345        0006100000OA317          CAMILA T                0098765434200116
627021200025998412345        0025600000OA341          ANGEL ORTIZ             0098765434200117
627021200025998412345        0003600000OA329          LILY COLE               0098765434200118
627021200025998412345        0012700000OA229          BRANDON WILSON          0098765434200119
627021200025998412345        0018300000OA230          CONNOR GARDNER          0098765434200120
627021200025998412345        0028200000OA287          MORGAN NELSON           0098765434200121
627021200025998412345        0021600000OA365          KEVIN WOOD              0098765434200122
627021200025998412345        0030000000OA326          ISABEL WEBB             0098765434200123
627021200025998412345        0025600000OA261          MATTHEW ROSE            0098765434200124
627021200025998412345        0029000000OA286          JACK GAS                0098765434200125
627021200025998412345        0027400000OA302          JOSEPH DES              0098765434200126
627021200025998412345        0013500000OA227          SARA NICHOLS            0098765434200127
627021200025998412345        0027400000OA334          ALEXA WALKER            0098765434200128
627021200025998412345        0007900000OA225          AIDEN MILES             0098765434200129
627021200025998412345        0018700000OA366          LUCAS THOMPSON          0098765434200130
627021200025998412345        0018000000OA234          CONNOR WILLIAMS         0098765434200131
627021200025998412345        0009500000OA276          GABRIEL JENSEN          0098765434200132
627021200025998412345        0015000000OA295          JAMES NEWMAN            0098765434200133
627021200025998412345        0009600000OA320          JACOB MORRISON          0098765434200134
627021200025998412345        0015800000OA255          JACOB LEE               0098765434200135
627021200025998412345        0015100000OA284          COLTON LOWE             0098765434200136
627021200025998412345        0013000000OA271          JUAN NICHOLS            0098765434200137
627021200025998412345        0008200000OA237          ZOEY DAVIDSON           0098765434200138
627021200025998412345        0013100000OA296          MARIA FLORES            0098765434200139
627021200025998412345        0014000000OA277          SYDNEY TUCKER           0098765434200140
627021200025998412345        0007600000OA289          ARIANNA LONG            0098765434200141
627021200025998412345        0028000000OA346          ISAAC JORDAN            0098765434200142
627021200025998412345        0005900000OA246          JESSICA WALKER          0098765434200143
627021200025998412345        0008700000OA231          ELIZABETH COLE          0098765434200144
627021200025998412345        0026100000OA351          LUKE CRAIG              0098765434200145
82250001450307400290002479800000000000000000231380104                          098765430000001
5220TEST COMPANY                       1231380104PPDVERIFY    110801110801    1098765430000003
622021200025998412345        0000001800OA370          CHASE BLACK             0098765434200001
622021200025998412345        0000001300OA379          ANDREA BUTLER           0098765434200002
622021200025998412345        0000000700OA371          BLAKE REYES             0098765434200003
622021200025998412345        0000000300OA385          CONNOR MEDINA           0098765434200004
622021200025998412345        0000001100OA369          CHASE BLACK             0098765434200005
622021200025998412345        0000001300OA384          BRANDON ARMSTRONG       0098765434200006
622021200025998412345        0000000300OA375          LUIS MEYER              0098765434200007
622021200025998412345        0000001300OA374          BLAKE HICKS             0098765434200008
622021200025998412345        0000000400OA372          BLAKE REYES             0098765434200009
622021200025998412345        0000000100OA377          DOMINIC RAY             0098765434200010
622021200025998412345        0000001900OA382          JONATHAN MORALES        0098765434200011
622021200025998412345        0000000400OA381          JONATHAN MORALES        0098765434200012
622021200025998412345        0000000200OA378          DOMINIC RAY             0098765434200013
622021200025998412345        0000001100OA376          LUIS MEYER              0098765434200014
622021200025998412345        0000002000OA373          BLAKE HICKS             0098765434200015
622021200025998412345        0000000200OA386          CONNOR MEDINA           0098765434200016
622021200025998412345        0000001600OA380          ANDREA BUTLER           0098765434200017
622021200025998412345        0000001200OA383          BRANDON ARMSTRONG       0098765434200018
82200000180038160036000000000000000000017200231380104                          098765430000003
5225                FV3               CA231380104IATTEST BUYS USDCAD110802    1098765430000004
627091050234007              0012200000998412345                              1098765430000001
710WEB                                        DIEGO MAY                                0000001
711TEST COMPANY                       123 EASY STREET                                  0000001
712ANYTOWN*KS\                        US*12345\                                        0000001
713U.S. BANK                          0104200001                          US           0000001
714CENTRAL                            01021200025                         CA           0000001
715OA391          PO Box 450                                                           0000001
716Metropolis*ON\                     CA*01234\                                        0000001
627091050234007              0004000000998412345                              1098765430000002
710WEB                                        JOSHUA SILVA                             0000002
711TEST COMPANY                       123 EASY STREET                                  0000002
712ANYTOWN*KS\                        US*12345\                                        0000002
713U.S. BANK                          0104200001                          US           0000002
714CENTRAL                            01021200025                         CA           0000002
715OA389          PO Box 230                                                           0000002
716Metropolis*ON\                     CA*01234\                                        0000002
627091050234007              0012200000998412345                              1098765430000003
710WEB                                        DIEGO MAY                                0000003
711TEST COMPANY                       123 EASY STREET                                  0000003
712ANYTOWN*KS\                        US*12345\                                        0000003
713U.S. BANK                          0104200001                          US           0000003
714CENTRAL                            01021200025                         CA           0000003
715OA398          PO Box 450                                                           0000003
716Metropolis*ON\                     CA*01234\                                        0000003
6270910502340007             0026800000998412345                              1098765430000004
710WEB                                        ZOEY PAYNE                               0000004
711TEST COMPANY                       123 EASY STREET                                  0000004
712ANYTOWN*KS\                        US*12345\                                        0000004
713U.S. BANK                          0104200001                          US           0000004
714CENTRAL                            01021200025                         CA           0000004
715OA392          PO Box 150                                                           0000004
716Metropolis*ON\                     CA*01234\                                        0000004
627091050234007              0012200000998412345                              1098765430000005
710WEB                                        DIEGO MAY                                0000005
711TEST COMPANY                       123 EASY STREET                                  0000005
712ANYTOWN*KS\                        US*12345\                                        0000005
713U.S. BANK                          0104200001                          US           0000005
714CENTRAL                            01021200025                         CA           0000005
715OA395          PO Box 450                                                           0000005
716Metropolis*ON\                     CA*01234\                                        0000005
627091050234007              0014800000998412345                              1098765430000006
710WEB                                        DYLAN RAMOS                              0000006
711TEST COMPANY                       123 EASY STREET                                  0000006
712ANYTOWN*KS\                        US*12345\                                        0000006
713U.S. BANK                          0104200001                          US           0000006
714CENTRAL                            01021200025                         CA           0000006
715OA390          PO Box 800                                                           0000006
716Metropolis*ON\                     CA*01234\                                        0000006
627091050234007              0026800000998412345                              1098765430000007
710WEB                                        ZOEY PAYNE                               0000007
711TEST COMPANY                       123 EASY STREET                                  0000007
712ANYTOWN*KS\                        US*12345\                                        0000007
713U.S. BANK                          0104200001                          US           0000007
714CENTRAL                            01021200025                         CA           0000007
715OA396          PO Box 150                                                           0000007
716Metropolis*ON\                     CA*01234\                                        0000007
627091050234007              0020300000998412345                              1098765430000008
710WEB                                        JAMES ROMERO                             0000008
711TEST COMPANY                       123 EASY STREET                                  0000008
712ANYTOWN*KS\                        US*12345\                                        0000008
713U.S. BANK                          0104200001                          US           0000008
714CENTRAL                            01021200025                         CA           0000008
715OA393          PO Box 810                                                           0000008
716Metropolis*ON\                     CA*01234\                                        0000008
627091050234007              0008700000998412345                              1098765430000009
710WEB                                        KEVIN LARSON                             0000009
711TEST COMPANY                       123 EASY STREET                                  0000009
712ANYTOWN*KS\                        US*12345\                                        0000009
713U.S. BANK                          0104200001                          US           0000009
714CENTRAL                            01021200025                         CA           0000009
715OA387          PO Box 340                                                           0000009
716Metropolis*ON\                     CA*01234\                                        0000009
627091050234007              0008700000998412345                              1098765430000010
710WEB                                        KEVIN LARSON                             0000010
711TEST COMPANY                       123 EASY STREET                                  0000010
712ANYTOWN*KS\                        US*12345\                                        0000010
713U.S. BANK                          0104200001                          US           0000010
714CENTRAL                            01021200025                         CA           0000010
715OA394          PO Box 340                                                           0000010
716Metropolis*ON\                     CA*01234\                                        0000010
627091050234007              0025100000998412345                              1098765430000011
710WEB                                        SEBASTIAN NEWMAN                         0000011
711TEST COMPANY                       123 EASY STREET                                  0000011
712ANYTOWN*KS\                        US*12345\                                        0000011
713U.S. BANK                          0104200001                          US           0000011
714CENTRAL                            01021200025                         CA           0000011
715OA388          PO Box 600                                                           0000011
716Metropolis*ON\                     CA*01234\                                        0000011
627091050234007              0026800000998412345                              1098765430000012
710WEB                                        ZOEY PAYNE                               0000012
711TEST COMPANY                       123 EASY STREET                                  0000012
712ANYTOWN*KS\                        US*12345\                                        0000012
713U.S. BANK                          0104200001                          US           0000012
714CENTRAL                            01021200025                         CA           0000012
715OA399          PO Box 150                                                           0000012
716Metropolis*ON\                     CA*01234\                                        0000012
627091050234007              0008700000998412345                              1098765430000013
710WEB                                        KEVIN LARSON                             0000013
711TEST COMPANY                       123 EASY STREET                                  0000013
712ANYTOWN*KS\                        US*12345\                                        0000013
713U.S. BANK                          0104200001                          US           0000013
714CENTRAL                            01021200025                         CA           0000013
715OA397          PO Box 340                                                           0000013
716Metropolis*ON\                     CA*01234\                                        0000013
82250001040118365299000207300000000000000000231380104                          098765430000004
5220                FV3               CA231380104IATVERIFY    USDCAD110802    1098765430000005
622091050234007              0000001200998412345                              1098765430000001
710WEB                                        LEAH BRYANT                              0000001
711TEST COMPANY                       123 EASY STREET                                  0000001
712ANYTOWN*KS\                        US*12345\                                        0000001
713U.S. BANK                          0104200001                          US           0000001
714CENTRAL                            01021200025                         CA           0000001
715OA400          PO Box 410                                                           0000001
716Metropolis*ON\                     CA*01234\                                        0000001
622091050234007              0000000100998412345                              1098765430000002
710WEB                                        LEAH BRYANT                              0000002
711TEST COMPANY                       123 EASY STREET                                  0000002
712ANYTOWN*KS\                        US*12345\                                        0000002
713U.S. BANK                          0104200001                          US           0000002
714CENTRAL                            01021200025                         CA           0000002
715OA401          PO Box 410                                                           0000002
716Metropolis*ON\                     CA*01234\                                        0000002
82200000160018210046000000000000000000001300231380104                          098765430000005
9000005000030000002830482135671002687100000000000018500                                       