5200Adam Shannon                        MOOVYYYYYYPPDtest trans2005262005271491273976360000188
62627397636915XXXXXXXXXX1    0000000146ae1300b1c1cac5cVeridian Credit Union te1273976361273620
82000000010027397636000000000146000000000000MOOVYYYYYY                         273976360000188
6212739763691XXXXXXXXXXX2    0000000008dcd5f1ce42ae2e1Adam Shannon          ac1323274270765782
6212739763691XXXXXXXXXXX2    0000000019908ac8a237911d6Adam Shannon          ac1323274270765783
6212739763691XXXXXXXXXXX2    0000000019908ac8a237911d6Adam Shannon          ac1323274270765784
82000000030082192908000000000000000000000046MOOVYYYYYY                         323274270000085
