5225Adam Shannon                        MOOVYYYYYYPPDtest trans2005262005271491273976360000188
62627397636915XXXXXXXXXX1    0000000146ae1300b1c1cac5cVeridian Credit Union te1273976361273620
799R02273976368613175      27397636                                            273976361273620
5220Robert Smith                        MOOVYYYYYYPPDaccount va2005262005271491323274270000085
6212739763691XXXXXXXXXXX2    0000000008dcd5f1ce42ae2e1Adam Shannon          ac1323274270765782
799R03273976360000001      32327427                                            323274270765782
6212739763691XXXXXXXXXXX2    0000000019908ac8a237911d6Adam Shannon          ac1323274270765784
799R03273976360000001      32327427                                            323274270765784