101 231380104 1210428821811130000A094101Federal Reserve Bank   My Bank Name
5280Company Name, In                    121042882 PPDAccounting      181114   0121042880000001
681231380104744-5678-99    00000005000012104288211131 Name                    0011000010500001
681231380104744-5678-99    00000005000012104288211131 Name                    0011000010500001
9
9999999999999999999999999999999999999999999999999999999999999999999999999999999999999999999999
9999999999999999999999999999999999999999999999999999999999999999999999999999999999999999999999
9999999999999999999999999999999999999999999999999999999999999999999999999999999999999999999999