101 YYYYYYYYY 1823273902003310500 094101PIMRET825324           FISERV                      
5220POSSIBLE FINANCE                    1823273909PPDLOAN            2003270911031101270002607
621101206101686133344441     000000010260502a49fb51411Prasad Mahendra         1031101278009179
799R04101206100000001      03110127PSEUDORETN                                  031101278009179
822000000200101206100000000000000000000001021823273909                         031101270002607
5225POSSIBLE FINANCE                    1823273909WEBPAYMENT         2003270911031101270002608
626101206101154444444411     00000001013b212c569c794c0Prasad Mahendra         1031101278009180
799R03101206100000001      03110127PSEUDORETN                                  031101278009180
822500000200101206100000000001010000000000001823273909                         031101270002608
5225POSSIBLE FINANCE                    1823273909WEBPAYMENT         2003270911031101270002609
62610120610114444444YYYY     0000010001e05d5435dcf249aPrasad Mahendra         1031101278009181
799R01101206100000001      03110127PSEUDORETN                                  031101278009181
822500000200101206100000000100010000000000001823273909                         031101270002609
9000003000002000000060030361830000000010102000000000102                                       
9999999999999999999999999999999999999999999999999999999999999999999999999999999999999999999999
9999999999999999999999999999999999999999999999999999999999999999999999999999999999999999999999
9999999999999999999999999999999999999999999999999999999999999999999999999999999999999999999999
9999999999999999999999999999999999999999999999999999999999999999999999999999999999999999999999
9999999999999999999999999999999999999999999999999999999999999999999999999999999999999999999999
9999999999999999999999999999999999999999999999999999999999999999999999999999999999999999999999
