5225MY COMPANY NAME                     1823273909WEBPAYMENT         2007312171123456780000151
62610120610182111184         0000007714c4437ad535504daFFFFFFFF LLLLL          1123456780000879
799R01101206100003510      12345678                                            123456780000879
6261012061010110             0000009446caddd043a027475FFFFFFF LLLLLL          1123456780000880
799R03101206100003650      12345678                                            123456780000880
822500000400202412200000000171600000000000001823273909                         123456780000151