101 231380104 1210428821805100000A094101Citadel                Wells Fargo                    
5200Wells Fargo                         121042882 PPDTrans. Des      180511   0121042880000001
62223138010481967038518      0000100000#RCP2bSsZWeCCE#Alexander Moore         1121042880000001
705bonus pay for amazing work on #OSS                                              00010000001
62223138010481967038518      0000100000#RCP2bSsZWeCCE#Alexander Moore         1121042880000002
705bonus pay for amazing work on #OSS                                              00010000002
62223138010481967038518      0000100000#RCP2bSsZWeCCE#Alexander Moore         1121042880000003
705bonus pay for amazing work on #OSS                                              00010000003
62223138010481967038518      0000100000#RCP2bSsZWeCCE#Alexander Moore         1121042880000004
705bonus pay for amazing work on #OSS                                              00010000004
62223138010481967038518      0000100000#RCP2bSsZWeCCE#Alexander Moore         1121042880000005
705bonus pay for amazing work on #OSS                                              00010000005
62223138010481967038518      0000100000#RCP2bSsZWeCCE#Alexander Moore         1121042880000006
705bonus pay for amazing work on #OSS                                              00010000006
62223138010481967038518      0000100000#RCP2bSsZWeCCE#Alexander Moore         1121042880000007
705bonus pay for amazing work on #OSS                                              00010000007
62223138010481967038518      0000100000#RCP2bSsZWeCCE#Alexander Moore         1121042880000008
705bonus pay for amazing work on #OSS                                              00010000008
62223138010481967038518      0000100000#RCP2bSsZWeCCE#Alexander Moore         1121042880000009
705bonus pay for amazing work on #OSS                                              00010000009
62223138010481967038518      0000100000#RCP2bSsZWeCCE#Alexander Moore         1121042880000010
705bonus pay for amazing work on #OSS                                              00010000010
62223138010481967038518      0000100000#RCP2bSsZWeCCE#Alexander Moore         1121042880000011
705bonus pay for amazing work on #OSS                                              00010000011
62223138010481967038518      0000100000#RCP2bSsZWeCCE#Alexander Moore         1121042880000012
705bonus pay for amazing work on #OSS                                              00010000012
62223138010481967038518      0000100000#RCP2bSsZWeCCE#Alexander Moore         1121042880000013
705bonus pay for amazing work on #OSS                                              00010000013
62223138010481967038518      0000100000#RCP2bSsZWeCCE#Alexander Moore         1121042880000014
705bonus pay for amazing work on #OSS                                              00010000014
62223138010481967038518      0000100000#RCP2bSsZWeCCE#Alexander Moore         1121042880000015
705bonus pay for amazing work on #OSS                                              00010000015
62223138010481967038518      0000100000#RCP2bSsZWeCCE#Alexander Moore         1121042880000016
705bonus pay for amazing work on #OSS                                              00010000016
62223138010481967038518      0000100000#RCP2bSsZWeCCE#Alexander Moore         1121042880000017
705bonus pay for amazing work on #OSS                                              00010000017
62223138010481967038518      0000100000#RCP2bSsZWeCCE#Alexander Moore         1121042880000018
705bonus pay for amazing work on #OSS                                              00010000018
62223138010481967038518      0000100000#RCP2bSsZWeCCE#Alexander Moore         1121042880000019
705bonus pay for amazing work on #OSS                                              00010000019
62223138010481967038518      0000100000#RCP2bSsZWeCCE#Alexander Moore         1121042880000020
705bonus pay for amazing work on #OSS                                              00010000020
62223138010481967038518      0000100000#RCP2bSsZWeCCE#Alexander Moore         1121042880000021
705bonus pay for amazing work on #OSS                                              00010000021
62223138010481967038518      0000100000#RCP2bSsZWeCCE#Alexander Moore         1121042880000022
705bonus pay for amazing work on #OSS                                              00010000022
62223138010481967038518      0000100000#RCP2bSsZWeCCE#Alexander Moore         1121042880000023
705bonus pay for amazing work on #OSS                                              00010000023
62223138010481967038518      0000100000#RCP2bSsZWeCCE#Alexander Moore         1121042880000024
705bonus pay for amazing work on #OSS                                              00010000024
62223138010481967038518      0000100000#RCP2bSsZWeCCE#Alexander Moore         1121042880000025
705bonus pay for amazing work on #OSS                                              00010000025
62223138010481967038518      0000100000#RCP2bSsZWeCCE#Alexander Moore         1121042880000026
705bonus pay for amazing work on #OSS                                              00010000026
62223138010481967038518      0000100000#RCP2bSsZWeCCE#Alexander Moore         1121042880000027
705bonus pay for amazing work on #OSS                                              00010000027
62223138010481967038518      0000100000#RCP2bSsZWeCCE#Alexander Moore         1121042880000028
705bonus pay for amazing work on #OSS                                              00010000028
62223138010481967038518      0000100000#RCP2bSsZWeCCE#Alexander Moore         1121042880000029
705bonus pay for amazing work on #OSS                                              00010000029
62223138010481967038518      0000100000#RCP2bSsZWeCCE#Alexander Moore         1121042880000030
705bonus pay for amazing work on #OSS                                              00010000030
62223138010481967038518      0000100000#RCP2bSsZWeCCE#Alexander Moore         1121042880000031
705bonus pay for amazing work on #OSS                                              00010000031
62223138010481967038518      0000100000#RCP2bSsZWeCCE#Alexander Moore         1121042880000032
705bonus pay for amazing work on #OSS                                              00010000032
62223138010481967038518      0000100000#RCP2bSsZWeCCE#Alexander Moore         1121042880000033
705bonus pay for amazing work on #OSS                                              00010000033
62223138010481967038518      0000100000#RCP2bSsZWeCCE#Alexander Moore         1121042880000034
705bonus pay for amazing work on #OSS                                              00010000034
62223138010481967038518      0000100000#RCP2bSsZWeCCE#Alexander Moore         1121042880000035
705bonus pay for amazing work on #OSS                                              00010000035
62223138010481967038518      0000100000#RCP2bSsZWeCCE#Alexander Moore         1121042880000036
705bonus pay for amazing work on #OSS                                              00010000036
62223138010481967038518      0000100000#RCP2bSsZWeCCE#Alexander Moore         1121042880000037
705bonus pay for amazing work on #OSS                                              00010000037
62223138010481967038518      0000100000#RCP2bSsZWeCCE#Alexander Moore         1121042880000038
705bonus pay for amazing work on #OSS                                              00010000038
62223138010481967038518      0000100000#0wvMj6gEc2YVZ#Alexander White         1121042880000039
705bonus pay for amazing work on #OSS                                              00010000039
62223138010481967038518      0000100000#0wvMj6gEc2YVZ#Addison White           1121042880000040
705bonus pay for amazing work on #OSS                                              00010000040
62223138010481967038518      0000100000#0wvMj6gEc2YVZ#Addison White           1121042880000041
705bonus pay for amazing work on #OSS                                              00010000041
62223138010481967038518      0000100000#0wvMj6gEc2YVZ#Addison White           1121042880000042
705bonus pay for amazing work on #OSS                                              00010000042
62223138010481967038518      0000100000#0wvMj6gEc2YVZ#Addison White           1121042880000043
705bonus pay for amazing work on #OSS                                              00010000043
62223138010481967038518      0000100000#0wvMj6gEc2YVZ#Addison White           1121042880000044
705bonus pay for amazing work on #OSS                                              00010000044
62223138010481967038518      0000100000#0wvMj6gEc2YVZ#Addison White           1121042880000045
705bonus pay for amazing work on #OSS                                              00010000045
62223138010481967038518      0000100000#0wvMj6gEc2YVZ#Addison White           1121042880000046
705bonus pay for amazing work on #OSS                                              00010000046
62223138010481967038518      0000100000#0wvMj6gEc2YVZ#Addison White           1121042880000047
705bonus pay for amazing work on #OSS                                              00010000047
62223138010481967038518      0000100000#0wvMj6gEc2YVZ#Addison White           1121042880000048
705bonus pay for amazing work on #OSS                                              00010000048
62223138010481967038518      0000100000#0wvMj6gEc2YVZ#Addison White           1121042880000049
705bonus pay for amazing work on #OSS                                              00010000049
62223138010481967038518      0000100000#0wvMj6gEc2YVZ#Addison White           1121042880000050
705bonus pay for amazing work on #OSS                                              00010000050
62223138010481967038518      0000100000#0wvMj6gEc2YVZ#Addison White           1121042880000051
705bonus pay for amazing work on #OSS                                              00010000051
62223138010481967038518      0000100000#0wvMj6gEc2YVZ#Addison White           1121042880000052
705bonus pay for amazing work on #OSS                                              00010000052
62223138010481967038518      0000100000#0wvMj6gEc2YVZ#Addison White           1121042880000053
705bonus pay for amazing work on #OSS                                              00010000053
62223138010481967038518      0000100000#0wvMj6gEc2YVZ#Addison White           1121042880000054
705bonus pay for amazing work on #OSS                                              00010000054
62223138010481967038518      0000100000#0wvMj6gEc2YVZ#Addison White           1121042880000055
705bonus pay for amazing work on #OSS                                              00010000055
62223138010481967038518      0000100000#0wvMj6gEc2YVZ#Addison White           1121042880000056
705bonus pay for amazing work on #OSS                                              00010000056
62223138010481967038518      0000100000#0wvMj6gEc2YVZ#Addison White           1121042880000057
705bonus pay for amazing work on #OSS                                              00010000057
62223138010481967038518      0000100000#0wvMj6gEc2YVZ#Addison White           1121042880000058
705bonus pay for amazing work on #OSS                                              00010000058
62223138010481967038518      0000100000#0wvMj6gEc2YVZ#Addison White           1121042880000059
705bonus pay for amazing work on #OSS                                              00010000059
62223138010481967038518      0000100000#0wvMj6gEc2YVZ#Addison White           1121042880000060
705bonus pay for amazing work on #OSS                                              00010000060
62223138010481967038518      0000100000#0wvMj6gEc2YVZ#Addison White           1121042880000061
705bonus pay for amazing work on #OSS                                              00010000061
62223138010481967038518      0000100000#0wvMj6gEc2YVZ#Addison White           1121042880000062
705bonus pay for amazing work on #OSS                                              00010000062
62223138010481967038518      0000100000#0wvMj6gEc2YVZ#Addison White           1121042880000063
705bonus pay for amazing work on #OSS                                              00010000063
62223138010481967038518      0000100000#0wvMj6gEc2YVZ#Addison White           1121042880000064
705bonus pay for amazing work on #OSS                                              00010000064
62223138010481967038518      0000100000#0wvMj6gEc2YVZ#Addison White           1121042880000065
705bonus pay for amazing work on #OSS                                              00010000065
62223138010481967038518      0000100000#0wvMj6gEc2YVZ#Addison White           1121042880000066
705bonus pay for amazing work on #OSS                                              00010000066
62223138010481967038518      0000100000#0wvMj6gEc2YVZ#Addison White           1121042880000067
705bonus pay for amazing work on #OSS                                              00010000067
62223138010481967038518      0000100000#0wvMj6gEc2YVZ#Addison White           1121042880000068
705bonus pay for amazing work on #OSS                                              00010000068
62223138010481967038518      0000100000#0wvMj6gEc2YVZ#Addison White           1121042880000069
705bonus pay for amazing work on #OSS                                              00010000069
62223138010481967038518      0000100000#0wvMj6gEc2YVZ#Addison White           1121042880000070
705bonus pay for amazing work on #OSS                                              00010000070
62223138010481967038518      0000100000#0wvMj6gEc2YVZ#Addison White           1121042880000071
705bonus pay for amazing work on #OSS                                              00010000071
62223138010481967038518      0000100000#0wvMj6gEc2YVZ#Addison White           1121042880000072
705bonus pay for amazing work on #OSS                                              00010000072
62223138010481967038518      0000100000#0wvMj6gEc2YVZ#Addison White           1121042880000073
705bonus pay for amazing work on #OSS                                              00010000073
62223138010481967038518      0000100000#0wvMj6gEc2YVZ#Addison White           1121042880000074
705bonus pay for amazing work on #OSS                                              00010000074
62223138010481967038518      0000100000#0wvMj6gEc2YVZ#Addison White           1121042880000075
705bonus pay for amazing work on #OSS                                              00010000075
62223138010481967038518      0000100000#0wvMj6gEc2YVZ#Addison White           1121042880000076
705bonus pay for amazing work on #OSS                                              00010000076
62223138010481967038518      0000100000#0wvMj6gEc2YVZ#Addison White           1121042880000077
705bonus pay for amazing work on #OSS                                              00010000077
62223138010481967038518      0000100000#0wvMj6gEc2YVZ#Addison White           1121042880000078
705bonus pay for amazing work on #OSS                                              00010000078
62223138010481967038518      0000100000#0wvMj6gEc2YVZ#Addison White           1121042880000079
705bonus pay for amazing work on #OSS                                              00010000079
62223138010481967038518      0000100000#0wvMj6gEc2YVZ#Addison White           1121042880000080
705bonus pay for amazing work on #OSS                                              00010000080
62223138010481967038518      0000100000#0wvMj6gEc2YVZ#Addison White           1121042880000081
705bonus pay for amazing work on #OSS                                              00010000081
62223138010481967038518      0000100000#0wvMj6gEc2YVZ#Addison White           1121042880000082
705bonus pay for amazing work on #OSS                                              00010000082
62223138010481967038518      0000100000#0wvMj6gEc2YVZ#Addison White           1121042880000083
705bonus pay for amazing work on #OSS                                              00010000083
62223138010481967038518      0000100000#0wvMj6gEc2YVZ#Addison White           1121042880000084
705bonus pay for amazing work on #OSS                                              00010000084
62223138010481967038518      0000100000#0wvMj6gEc2YVZ#Addison White           1121042880000085
705bonus pay for amazing work on #OSS                                              00010000085
62223138010481967038518      0000100000#PdeE1oGEvIt9B#Elijah Jackson          1121042880000086
705bonus pay for amazing work on #OSS                                              00010000086
62223138010481967038518      0000100000#PdeE1oGEvIt9B#Elijah Jackson          1121042880000087
705bonus pay for amazing work on #OSS                                              00010000087
62223138010481967038518      0000100000#PdeE1oGEvIt9B#Elijah Jackson          1121042880000088
705bonus pay for amazing work on #OSS                                              00010000088
62223138010481967038518      0000100000#PdeE1oGEvIt9B#Elijah Jackson          1121042880000089
705bonus pay for amazing work on #OSS                                              00010000089
62223138010481967038518      0000100000#PdeE1oGEvIt9B#Elijah Jackson          1121042880000090
705bonus pay for amazing work on #OSS                                              00010000090
62223138010481967038518      0000100000#PdeE1oGEvIt9B#Elijah Jackson          1121042880000091
705bonus pay for amazing work on #OSS                                              00010000091
62223138010481967038518      0000100000#PdeE1oGEvIt9B#Elijah Jackson          1121042880000092
705bonus pay for amazing work on #OSS                                              00010000092
62223138010481967038518      0000100000#PdeE1oGEvIt9B#Elijah Jackson          1121042880000093
705bonus pay for amazing work on #OSS                                              00010000093
62223138010481967038518      0000100000#PdeE1oGEvIt9B#Elijah Jackson          1121042880000094
705bonus pay for amazing work on #OSS                                              00010000094
62223138010481967038518      0000100000#PdeE1oGEvIt9B#Elijah Jackson          1121042880000095
705bonus pay for amazing work on #OSS                                              00010000095
62223138010481967038518      0000100000#PdeE1oGEvIt9B#Elijah Jackson          1121042880000096
705bonus pay for amazing work on #OSS                                              00010000096
62223138010481967038518      0000100000#PdeE1oGEvIt9B#Elijah Jackson          1121042880000097
705bonus pay for amazing work on #OSS                                              00010000097
62223138010481967038518      0000100000#PdeE1oGEvIt9B#Elijah Jackson          1121042880000098
705bonus pay for amazing work on #OSS                                              00010000098
62223138010481967038518      0000100000#PdeE1oGEvIt9B#Elijah Jackson          1121042880000099
705bonus pay for amazing work on #OSS                                              00010000099
62223138010481967038518      0000100000#PdeE1oGEvIt9B#Elijah Jackson          1121042880000100
705bonus pay for amazing work on #OSS                                              00010000100
62223138010481967038518      0000100000#PdeE1oGEvIt9B#Elijah Jackson          1121042880000101
705bonus pay for amazing work on #OSS                                              00010000101
62223138010481967038518      0000100000#PdeE1oGEvIt9B#Elijah Jackson          1121042880000102
705bonus pay for amazing work on #OSS                                              00010000102
62223138010481967038518      0000100000#PdeE1oGEvIt9B#Elijah Jackson          1121042880000103
705bonus pay for amazing work on #OSS                                              00010000103
62223138010481967038518      0000100000#PdeE1oGEvIt9B#Elijah Jackson          1121042880000104
705bonus pay for amazing work on #OSS                                              00010000104
62223138010481967038518      0000100000#PdeE1oGEvIt9B#Elijah Jackson          1121042880000105
705bonus pay for amazing work on #OSS                                              00010000105
62223138010481967038518      0000100000#PdeE1oGEvIt9B#Elijah Jackson          1121042880000106
705bonus pay for amazing work on #OSS                                              00010000106
62223138010481967038518      0000100000#PdeE1oGEvIt9B#Elijah Jackson          1121042880000107
705bonus pay for amazing work on #OSS                                              00010000107
62223138010481967038518      0000100000#PdeE1oGEvIt9B#Elijah Jackson          1121042880000108
705bonus pay for amazing work on #OSS                                              00010000108
62223138010481967038518      0000100000#PdeE1oGEvIt9B#Elijah Jackson          1121042880000109
705bonus pay for amazing work on #OSS                                              00010000109
62223138010481967038518      0000100000#PdeE1oGEvIt9B#Elijah Jackson          1121042880000110
705bonus pay for amazing work on #OSS                                              00010000110
62223138010481967038518      0000100000#PdeE1oGEvIt9B#Elijah Jackson          1121042880000111
705bonus pay for amazing work on #OSS                                              00010000111
62223138010481967038518      0000100000#PdeE1oGEvIt9B#Elijah Jackson          1121042880000112
705bonus pay for amazing work on #OSS                                              00010000112
62223138010481967038518      0000100000#PdeE1oGEvIt9B#Elijah Jackson          1121042880000113
705bonus pay for amazing work on #OSS                                              00010000113
62223138010481967038518      0000100000#PdeE1oGEvIt9B#Elijah Jackson          1121042880000114
705bonus pay for amazing work on #OSS                                              00010000114
62223138010481967038518      0000100000#PdeE1oGEvIt9B#Elijah Jackson          1121042880000115
705bonus pay for amazing work on #OSS                                              00010000115
62223138010481967038518      0000100000#PdeE1oGEvIt9B#Elijah Jackson          1121042880000116
705bonus pay for amazing work on #OSS                                              00010000116
62223138010481967038518      0000100000#PdeE1oGEvIt9B#Elijah Jackson          1121042880000117
705bonus pay for amazing work on #OSS                                              00010000117
62223138010481967038518      0000100000#PdeE1oGEvIt9B#Elijah Jackson          1121042880000118
705bonus pay for amazing work on #OSS                                              00010000118
62223138010481967038518      0000100000#PdeE1oGEvIt9B#Elijah Jackson          1121042880000119
705bonus pay for amazing work on #OSS                                              00010000119
62223138010481967038518      0000100000#PdeE1oGEvIt9B#Elijah Jackson          1121042880000120
705bonus pay for amazing work on #OSS                                              00010000120
62223138010481967038518      0000100000#PdeE1oGEvIt9B#Elijah Jackson          1121042880000121
705bonus pay for amazing work on #OSS                                              00010000121
62223138010481967038518      0000100000#PdeE1oGEvIt9B#Elijah Jackson          1121042880000122
705bonus pay for amazing work on #OSS                                              00010000122
62223138010481967038518      0000100000#PdeE1oGEvIt9B#Elijah Jackson          1121042880000123
705bonus pay for amazing work on #OSS                                              00010000123
62223138010481967038518      0000100000#PdeE1oGEvIt9B#Elijah Jackson          1121042880000124
705bonus pay for amazing work on #OSS                                              00010000124
62223138010481967038518      0000100000#PdeE1oGEvIt9B#Elijah Jackson          1121042880000125
705bonus pay for amazing work on #OSS                                              00010000125
62223138010481967038518      0000100000#PdeE1oGEvIt9B#Elijah Jackson          1121042880000126
705bonus pay for amazing work on #OSS                                              00010000126
62223138010481967038518      0000100000#PdeE1oGEvIt9B#Elijah Jackson          1121042880000127
705bonus pay for amazing work on #OSS                                              00010000127
62223138010481967038518      0000100000#PdeE1oGEvIt9B#Elijah Jackson          1121042880000128
705bonus pay for amazing work on #OSS                                              00010000128
62223138010481967038518      0000100000#PdeE1oGEvIt9B#Elijah Jackson          1121042880000129
705bonus pay for amazing work on #OSS                                              00010000129
62223138010481967038518      0000100000#PdeE1oGEvIt9B#Elijah Jackson          1121042880000130
705bonus pay for amazing work on #OSS                                              00010000130
62223138010481967038518      0000100000#PdeE1oGEvIt9B#Elijah Jackson          1121042880000131
705bonus pay for amazing work on #OSS                                              00010000131
62223138010481967038518      0000100000#DeKJU7RcZL5Sc#Elizabeth Taylor        1121042880000132
705bonus pay for amazing work on #OSS                                              00010000132
62223138010481967038518      0000100000#DeKJU7RcZL5Sc#Elizabeth Taylor        1121042880000133
705bonus pay for amazing work on #OSS                                              00010000133
62223138010481967038518      0000100000#DeKJU7RcZL5Sc#Elizabeth Taylor        1121042880000134
705bonus pay for amazing work on #OSS                                              00010000134
62223138010481967038518      0000100000#DeKJU7RcZL5Sc#Elizabeth Taylor        1121042880000135
705bonus pay for amazing work on #OSS                                              00010000135
62223138010481967038518      0000100000#DeKJU7RcZL5Sc#Elizabeth Taylor        1121042880000136
705bonus pay for amazing work on #OSS                                              00010000136
62223138010481967038518      0000100000#DeKJU7RcZL5Sc#Elizabeth Taylor        1121042880000137
705bonus pay for amazing work on #OSS                                              00010000137
62223138010481967038518      0000100000#DeKJU7RcZL5Sc#Elizabeth Taylor        1121042880000138
705bonus pay for amazing work on #OSS                                              00010000138
62223138010481967038518      0000100000#DeKJU7RcZL5Sc#Elizabeth Taylor        1121042880000139
705bonus pay for amazing work on #OSS                                              00010000139
62223138010481967038518      0000100000#DeKJU7RcZL5Sc#Elizabeth Taylor        1121042880000140
705bonus pay for amazing work on #OSS                                              00010000140
62223138010481967038518      0000100000#DeKJU7RcZL5Sc#Elizabeth Taylor        1121042880000141
705bonus pay for amazing work on #OSS                                              00010000141
62223138010481967038518      0000100000#DeKJU7RcZL5Sc#Elizabeth Taylor        1121042880000142
705bonus pay for amazing work on #OSS                                              00010000142
62223138010481967038518      0000100000#DeKJU7RcZL5Sc#Elizabeth Taylor        1121042880000143
705bonus pay for amazing work on #OSS                                              00010000143
62223138010481967038518      0000100000#DeKJU7RcZL5Sc#Elizabeth Taylor        1121042880000144
705bonus pay for amazing work on #OSS                                              00010000144
62223138010481967038518      0000100000#DeKJU7RcZL5Sc#Elizabeth Taylor        1121042880000145
705bonus pay for amazing work on #OSS                                              00010000145
62223138010481967038518      0000100000#DeKJU7RcZL5Sc#Elizabeth Taylor        1121042880000146
705bonus pay for amazing work on #OSS                                              00010000146
62223138010481967038518      0000100000#DeKJU7RcZL5Sc#Elizabeth Taylor        1121042880000147
705bonus pay for amazing work on #OSS                                              00010000147
62223138010481967038518      0000100000#DeKJU7RcZL5Sc#Elizabeth Taylor        1121042880000148
705bonus pay for amazing work on #OSS                                              00010000148
62223138010481967038518      0000100000#DeKJU7RcZL5Sc#Elizabeth Taylor        1121042880000149
705bonus pay for amazing work on #OSS                                              00010000149
62223138010481967038518      0000100000#DeKJU7RcZL5Sc#Elizabeth Taylor        1121042880000150
705bonus pay for amazing work on #OSS                                              00010000150
62223138010481967038518      0000100000#DeKJU7RcZL5Sc#Elizabeth Taylor        1121042880000151
705bonus pay for amazing work on #OSS                                              00010000151
62223138010481967038518      0000100000#DeKJU7RcZL5Sc#Elizabeth Taylor        1121042880000152
705bonus pay for amazing work on #OSS                                              00010000152
62223138010481967038518      0000100000#DeKJU7RcZL5Sc#Elizabeth Taylor        1121042880000153
705bonus pay for amazing work on #OSS                                              00010000153
62223138010481967038518      0000100000#DeKJU7RcZL5Sc#Elizabeth Taylor        1121042880000154
705bonus pay for amazing work on #OSS                                              00010000154
62223138010481967038518      0000100000#DeKJU7RcZL5Sc#Elizabeth Taylor        1121042880000155
705bonus pay for amazing work on #OSS                                              00010000155
62223138010481967038518      0000100000#DeKJU7RcZL5Sc#Elizabeth Taylor        1121042880000156
705bonus pay for amazing work on #OSS                                              00010000156
62223138010481967038518      0000100000#DeKJU7RcZL5Sc#Elizabeth Taylor        1121042880000157
705bonus pay for amazing work on #OSS                                              00010000157
62223138010481967038518      0000100000#DeKJU7RcZL5Sc#Elizabeth Taylor        1121042880000158
705bonus pay for amazing work on #OSS                                              00010000158
62223138010481967038518      0000100000#DeKJU7RcZL5Sc#Elizabeth Taylor        1121042880000159
705bonus pay for amazing work on #OSS                                              00010000159
62223138010481967038518      0000100000#DeKJU7RcZL5Sc#Elizabeth Taylor        1121042880000160
705bonus pay for amazing work on #OSS                                              00010000160
62223138010481967038518      0000100000#DeKJU7RcZL5Sc#Elizabeth Taylor        1121042880000161
705bonus pay for amazing work on #OSS                                              00010000161
62223138010481967038518      0000100000#DeKJU7RcZL5Sc#Elizabeth Taylor        1121042880000162
705bonus pay for amazing work on #OSS                                              00010000162
62223138010481967038518      0000100000#DeKJU7RcZL5Sc#Elizabeth Taylor        1121042880000163
705bonus pay for amazing work on #OSS                                              00010000163
62223138010481967038518      0000100000#DeKJU7RcZL5Sc#Elizabeth Taylor        1121042880000164
705bonus pay for amazing work on #OSS                                              00010000164
62223138010481967038518      0000100000#DeKJU7RcZL5Sc#Elizabeth Taylor        1121042880000165
705bonus pay for amazing work on #OSS                                              00010000165
62223138010481967038518      0000100000#DeKJU7RcZL5Sc#Elizabeth Taylor        1121042880000166
705bonus pay for amazing work on #OSS                                              00010000166
62223138010481967038518      0000100000#DeKJU7RcZL5Sc#Elizabeth Taylor        1121042880000167
705bonus pay for amazing work on #OSS                                              00010000167
62223138010481967038518      0000100000#DeKJU7RcZL5Sc#Elizabeth Taylor        1121042880000168
705bonus pay for amazing work on #OSS                                              00010000168
62223138010481967038518      0000100000#DeKJU7RcZL5Sc#Elizabeth Taylor        1121042880000169
705bonus pay for amazing work on #OSS                                              00010000169
62223138010481967038518      0000100000#DeKJU7RcZL5Sc#Elizabeth Taylor        1121042880000170
705bonus pay for amazing work on #OSS                                              00010000170
62223138010481967038518      0000100000#DeKJU7RcZL5Sc#Elizabeth Taylor        1121042880000171
705bonus pay for amazing work on #OSS                                              00010000171
62223138010481967038518      0000100000#DeKJU7RcZL5Sc#Elizabeth Taylor        1121042880000172
705bonus pay for amazing work on #OSS                                              00010000172
62223138010481967038518      0000100000#DeKJU7RcZL5Sc#Elizabeth Taylor        1121042880000173
705bonus pay for amazing work on #OSS                                              00010000173
62223138010481967038518      0000100000#DeKJU7RcZL5Sc#Elizabeth Taylor        1121042880000174
705bonus pay for amazing work on #OSS                                              00010000174
62223138010481967038518      0000100000#DeKJU7RcZL5Sc#Elizabeth Taylor        1121042880000175
705bonus pay for amazing work on #OSS                                              00010000175
62223138010481967038518      0000100000#DeKJU7RcZL5Sc#Elizabeth Taylor        1121042880000176
705bonus pay for amazing work on #OSS                                              00010000176
62223138010481967038518      0000100000#DeKJU7RcZL5Sc#Elizabeth Taylor        1121042880000177
705bonus pay for amazing work on #OSS                                              00010000177
62223138010481967038518      0000100000#RqC9kaErtyTXc#Natalie Thompson        1121042880000178
705bonus pay for amazing work on #OSS                                              00010000178
62223138010481967038518      0000100000#RqC9kaErtyTXc#Joshua Thompson         1121042880000179
705bonus pay for amazing work on #OSS                                              00010000179
62223138010481967038518      0000100000#RqC9kaErtyTXc#Joshua Thompson         1121042880000180
705bonus pay for amazing work on #OSS                                              00010000180
62223138010481967038518      0000100000#RqC9kaErtyTXc#Joshua Thompson         1121042880000181
705bonus pay for amazing work on #OSS                                              00010000181
62223138010481967038518      0000100000#RqC9kaErtyTXc#Joshua Thompson         1121042880000182
705bonus pay for amazing work on #OSS                                              00010000182
62223138010481967038518      0000100000#RqC9kaErtyTXc#Joshua Thompson         1121042880000183
705bonus pay for amazing work on #OSS                                              00010000183
62223138010481967038518      0000100000#RqC9kaErtyTXc#Joshua Thompson         1121042880000184
705bonus pay for amazing work on #OSS                                              00010000184
62223138010481967038518      0000100000#RqC9kaErtyTXc#Joshua Thompson         1121042880000185
705bonus pay for amazing work on #OSS                                              00010000185
62223138010481967038518      0000100000#RqC9kaErtyTXc#Joshua Thompson         1121042880000186
705bonus pay for amazing work on #OSS                                              00010000186
62223138010481967038518      0000100000#RqC9kaErtyTXc#Joshua Thompson         1121042880000187
705bonus pay for amazing work on #OSS                                              00010000187
62223138010481967038518      0000100000#RqC9kaErtyTXc#Joshua Thompson         1121042880000188
705bonus pay for amazing work on #OSS                                              00010000188
62223138010481967038518      0000100000#RqC9kaErtyTXc#Joshua Thompson         1121042880000189
705bonus pay for amazing work on #OSS                                              00010000189
62223138010481967038518      0000100000#RqC9kaErtyTXc#Joshua Thompson         1121042880000190
705bonus pay for amazing work on #OSS                                              00010000190
62223138010481967038518      0000100000#RqC9kaErtyTXc#Joshua Thompson         1121042880000191
705bonus pay for amazing work on #OSS                                              00010000191
62223138010481967038518      0000100000#RqC9kaErtyTXc#Joshua Thompson         1121042880000192
705bonus pay for amazing work on #OSS                                              00010000192
62223138010481967038518      0000100000#RqC9kaErtyTXc#Joshua Thompson         1121042880000193
705bonus pay for amazing work on #OSS                                              00010000193
62223138010481967038518      0000100000#RqC9kaErtyTXc#Joshua Thompson         1121042880000194
705bonus pay for amazing work on #OSS                                              00010000194
62223138010481967038518      0000100000#RqC9kaErtyTXc#Joshua Thompson         1121042880000195
705bonus pay for amazing work on #OSS                                              00010000195
62223138010481967038518      0000100000#RqC9kaErtyTXc#Joshua Thompson         1121042880000196
705bonus pay for amazing work on #OSS                                              00010000196
62223138010481967038518      0000100000#RqC9kaErtyTXc#Joshua Thompson         1121042880000197
705bonus pay for amazing work on #OSS                                              00010000197
62223138010481967038518      0000100000#RqC9kaErtyTXc#Joshua Thompson         1121042880000198
705bonus pay for amazing work on #OSS                                              00010000198
62223138010481967038518      0000100000#RqC9kaErtyTXc#Joshua Thompson         1121042880000199
705bonus pay for amazing work on #OSS                                              00010000199
62223138010481967038518      0000100000#RqC9kaErtyTXc#Joshua Thompson         1121042880000200
705bonus pay for amazing work on #OSS                                              00010000200
62223138010481967038518      0000100000#RqC9kaErtyTXc#Joshua Thompson         1121042880000201
705bonus pay for amazing work on #OSS                                              00010000201
62223138010481967038518      0000100000#RqC9kaErtyTXc#Joshua Thompson         1121042880000202
705bonus pay for amazing work on #OSS                                              00010000202
62223138010481967038518      0000100000#RqC9kaErtyTXc#Joshua Thompson         1121042880000203
705bonus pay for amazing work on #OSS                                              00010000203
62223138010481967038518      0000100000#RqC9kaErtyTXc#Joshua Thompson         1121042880000204
705bonus pay for amazing work on #OSS                                              00010000204
62223138010481967038518      0000100000#RqC9kaErtyTXc#Joshua Thompson         1121042880000205
705bonus pay for amazing work on #OSS                                              00010000205
62223138010481967038518      0000100000#RqC9kaErtyTXc#Joshua Thompson         1121042880000206
705bonus pay for amazing work on #OSS                                              00010000206
62223138010481967038518      0000100000#RqC9kaErtyTXc#Joshua Thompson         1121042880000207
705bonus pay for amazing work on #OSS                                              00010000207
62223138010481967038518      0000100000#RqC9kaErtyTXc#Joshua Thompson         1121042880000208
705bonus pay for amazing work on #OSS                                              00010000208
62223138010481967038518      0000100000#RqC9kaErtyTXc#Joshua Thompson         1121042880000209
705bonus pay for amazing work on #OSS                                              00010000209
62223138010481967038518      0000100000#RqC9kaErtyTXc#Joshua Thompson         1121042880000210
705bonus pay for amazing work on #OSS                                              00010000210
62223138010481967038518      0000100000#RqC9kaErtyTXc#Joshua Thompson         1121042880000211
705bonus pay for amazing work on #OSS                                              00010000211
62223138010481967038518      0000100000#RqC9kaErtyTXc#Joshua Thompson         1121042880000212
705bonus pay for amazing work on #OSS                                              00010000212
62223138010481967038518      0000100000#RqC9kaErtyTXc#Joshua Thompson         1121042880000213
705bonus pay for amazing work on #OSS                                              00010000213
62223138010481967038518      0000100000#RqC9kaErtyTXc#Joshua Thompson         1121042880000214
705bonus pay for amazing work on #OSS                                              00010000214
62223138010481967038518      0000100000#RqC9kaErtyTXc#Joshua Thompson         1121042880000215
705bonus pay for amazing work on #OSS                                              00010000215
62223138010481967038518      0000100000#RqC9kaErtyTXc#Joshua Thompson         1121042880000216
705bonus pay for amazing work on #OSS                                              00010000216
62223138010481967038518      0000100000#RqC9kaErtyTXc#Joshua Thompson         1121042880000217
705bonus pay for amazing work on #OSS                                              00010000217
62223138010481967038518      0000100000#RqC9kaErtyTXc#Joshua Thompson         1121042880000218
705bonus pay for amazing work on #OSS                                              00010000218
62223138010481967038518      0000100000#RqC9kaErtyTXc#Joshua Thompson         1121042880000219
705bonus pay for amazing work on #OSS                                              00010000219
62223138010481967038518      0000100000#RqC9kaErtyTXc#Joshua Thompson         1121042880000220
705bonus pay for amazing work on #OSS                                              00010000220
62223138010481967038518      0000100000#RqC9kaErtyTXc#Joshua Thompson         1121042880000221
705bonus pay for amazing work on #OSS                                              00010000221
62223138010481967038518      0000100000#RqC9kaErtyTXc#Joshua Thompson         1121042880000222
705bonus pay for amazing work on #OSS                                              00010000222
62223138010481967038518      0000100000#RqC9kaErtyTXc#Joshua Thompson         1121042880000223
705bonus pay for amazing work on #OSS                                              00010000223
62223138010481967038518      0000100000#zncFCSsFIQjLZ#Joshua Davis            1121042880000224
705bonus pay for amazing work on #OSS                                              00010000224
62223138010481967038518      0000100000#zncFCSsFIQjLZ#Emily Davis             1121042880000225
705bonus pay for amazing work on #OSS                                              00010000225
62223138010481967038518      0000100000#zncFCSsFIQjLZ#Emily Davis             1121042880000226
705bonus pay for amazing work on #OSS                                              00010000226
62223138010481967038518      0000100000#zncFCSsFIQjLZ#Emily Davis             1121042880000227
705bonus pay for amazing work on #OSS                                              00010000227
62223138010481967038518      0000100000#zncFCSsFIQjLZ#Emily Davis             1121042880000228
705bonus pay for amazing work on #OSS                                              00010000228
62223138010481967038518      0000100000#zncFCSsFIQjLZ#Emily Davis             1121042880000229
705bonus pay for amazing work on #OSS                                              00010000229
62223138010481967038518      0000100000#zncFCSsFIQjLZ#Emily Davis             1121042880000230
705bonus pay for amazing work on #OSS                                              00010000230
62223138010481967038518      0000100000#zncFCSsFIQjLZ#Emily Davis             1121042880000231
705bonus pay for amazing work on #OSS                                              00010000231
62223138010481967038518      0000100000#zncFCSsFIQjLZ#Emily Davis             1121042880000232
705bonus pay for amazing work on #OSS                                              00010000232
62223138010481967038518      0000100000#zncFCSsFIQjLZ#Emily Davis             1121042880000233
705bonus pay for amazing work on #OSS                                              00010000233
62223138010481967038518      0000100000#zncFCSsFIQjLZ#Emily Davis             1121042880000234
705bonus pay for amazing work on #OSS                                              00010000234
62223138010481967038518      0000100000#zncFCSsFIQjLZ#Emily Davis             1121042880000235
705bonus pay for amazing work on #OSS                                              00010000235
62223138010481967038518      0000100000#zncFCSsFIQjLZ#Emily Davis             1121042880000236
705bonus pay for amazing work on #OSS                                              00010000236
62223138010481967038518      0000100000#zncFCSsFIQjLZ#Emily Davis             1121042880000237
705bonus pay for amazing work on #OSS                                              00010000237
62223138010481967038518      0000100000#zncFCSsFIQjLZ#Emily Davis             1121042880000238
705bonus pay for amazing work on #OSS                                              00010000238
62223138010481967038518      0000100000#zncFCSsFIQjLZ#Emily Davis             1121042880000239
705bonus pay for amazing work on #OSS                                              00010000239
62223138010481967038518      0000100000#zncFCSsFIQjLZ#Emily Davis             1121042880000240
705bonus pay for amazing work on #OSS                                              00010000240
62223138010481967038518      0000100000#zncFCSsFIQjLZ#Emily Davis             1121042880000241
705bonus pay for amazing work on #OSS                                              00010000241
62223138010481967038518      0000100000#zncFCSsFIQjLZ#Emily Davis             1121042880000242
705bonus pay for amazing work on #OSS                                              00010000242
62223138010481967038518      0000100000#zncFCSsFIQjLZ#Emily Davis             1121042880000243
705bonus pay for amazing work on #OSS                                              00010000243
62223138010481967038518      0000100000#zncFCSsFIQjLZ#Emily Davis             1121042880000244
705bonus pay for amazing work on #OSS                                              00010000244
62223138010481967038518      0000100000#zncFCSsFIQjLZ#Emily Davis             1121042880000245
705bonus pay for amazing work on #OSS                                              00010000245
62223138010481967038518      0000100000#zncFCSsFIQjLZ#Emily Davis             1121042880000246
705bonus pay for amazing work on #OSS                                              00010000246
62223138010481967038518      0000100000#zncFCSsFIQjLZ#Emily Davis             1121042880000247
705bonus pay for amazing work on #OSS                                              00010000247
62223138010481967038518      0000100000#zncFCSsFIQjLZ#Emily Davis             1121042880000248
705bonus pay for amazing work on #OSS                                              00010000248
62223138010481967038518      0000100000#zncFCSsFIQjLZ#Emily Davis             1121042880000249
705bonus pay for amazing work on #OSS                                              00010000249
62223138010481967038518      0000100000#zncFCSsFIQjLZ#Emily Davis             1121042880000250
705bonus pay for amazing work on #OSS                                              00010000250
62223138010481967038518      0000100000#zncFCSsFIQjLZ#Emily Davis             1121042880000251
705bonus pay for amazing work on #OSS                                              00010000251
62223138010481967038518      0000100000#zncFCSsFIQjLZ#Emily Davis             1121042880000252
705bonus pay for amazing work on #OSS                                              00010000252
62223138010481967038518      0000100000#zncFCSsFIQjLZ#Emily Davis             1121042880000253
705bonus pay for amazing work on #OSS                                              00010000253
62223138010481967038518      0000100000#zncFCSsFIQjLZ#Emily Davis             1121042880000254
705bonus pay for amazing work on #OSS                                              00010000254
62223138010481967038518      0000100000#zncFCSsFIQjLZ#Emily Davis             1121042880000255
705bonus pay for amazing work on #OSS                                              00010000255
62223138010481967038518      0000100000#zncFCSsFIQjLZ#Emily Davis             1121042880000256
705bonus pay for amazing work on #OSS                                              00010000256
62223138010481967038518      0000100000#zncFCSsFIQjLZ#Emily Davis             1121042880000257
705bonus pay for amazing work on #OSS                                              00010000257
62223138010481967038518      0000100000#zncFCSsFIQjLZ#Emily Davis             1121042880000258
705bonus pay for amazing work on #OSS                                              00010000258
62223138010481967038518      0000100000#zncFCSsFIQjLZ#Emily Davis             1121042880000259
705bonus pay for amazing work on #OSS                                              00010000259
62223138010481967038518      0000100000#zncFCSsFIQjLZ#Emily Davis             1121042880000260
705bonus pay for amazing work on #OSS                                              00010000260
62223138010481967038518      0000100000#zncFCSsFIQjLZ#Emily Davis             1121042880000261
705bonus pay for amazing work on #OSS                                              00010000261
62223138010481967038518      0000100000#zncFCSsFIQjLZ#Emily Davis             1121042880000262
705bonus pay for amazing work on #OSS                                              00010000262
62223138010481967038518      0000100000#zncFCSsFIQjLZ#Emily Davis             1121042880000263
705bonus pay for amazing work on #OSS                                              00010000263
62223138010481967038518      0000100000#zncFCSsFIQjLZ#Emily Davis             1121042880000264
705bonus pay for amazing work on #OSS                                              00010000264
62223138010481967038518      0000100000#zncFCSsFIQjLZ#Emily Davis             1121042880000265
705bonus pay for amazing work on #OSS                                              00010000265
62223138010481967038518      0000100000#zncFCSsFIQjLZ#Emily Davis             1121042880000266
705bonus pay for amazing work on #OSS                                              00010000266
62223138010481967038518      0000100000#zncFCSsFIQjLZ#Emily Davis             1121042880000267
705bonus pay for amazing work on #OSS                                              00010000267
62223138010481967038518      0000100000#zncFCSsFIQjLZ#Emily Davis             1121042880000268
705bonus pay for amazing work on #OSS                                              00010000268
62223138010481967038518      0000100000#zncFCSsFIQjLZ#Emily Davis             1121042880000269
705bonus pay for amazing work on #OSS                                              00010000269
62223138010481967038518      0000100000#zncFCSsFIQjLZ#Emily Davis             1121042880000270
705bonus pay for amazing work on #OSS                                              00010000270
62223138010481967038518      0000100000#GeqMftiuLza0G#Lily Martin             1121042880000271
705bonus pay for amazing work on #OSS                                              00010000271
62223138010481967038518      0000100000#GeqMftiuLza0G#Lily Martin             1121042880000272
705bonus pay for amazing work on #OSS                                              00010000272
62223138010481967038518      0000100000#GeqMftiuLza0G#Lily Martin             1121042880000273
705bonus pay for amazing work on #OSS                                              00010000273
62223138010481967038518      0000100000#GeqMftiuLza0G#Lily Martin             1121042880000274
705bonus pay for amazing work on #OSS                                              00010000274
62223138010481967038518      0000100000#GeqMftiuLza0G#Lily Martin             1121042880000275
705bonus pay for amazing work on #OSS                                              00010000275
62223138010481967038518      0000100000#GeqMftiuLza0G#Lily Martin             1121042880000276
705bonus pay for amazing work on #OSS                                              00010000276
62223138010481967038518      0000100000#GeqMftiuLza0G#Lily Martin             1121042880000277
705bonus pay for amazing work on #OSS                                              00010000277
62223138010481967038518      0000100000#GeqMftiuLza0G#Lily Martin             1121042880000278
705bonus pay for amazing work on #OSS                                              00010000278
62223138010481967038518      0000100000#GeqMftiuLza0G#Lily Martin             1121042880000279
705bonus pay for amazing work on #OSS                                              00010000279
62223138010481967038518      0000100000#GeqMftiuLza0G#Lily Martin             1121042880000280
705bonus pay for amazing work on #OSS                                              00010000280
62223138010481967038518      0000100000#GeqMftiuLza0G#Lily Martin             1121042880000281
705bonus pay for amazing work on #OSS                                              00010000281
62223138010481967038518      0000100000#GeqMftiuLza0G#Lily Martin             1121042880000282
705bonus pay for amazing work on #OSS                                              00010000282
62223138010481967038518      0000100000#GeqMftiuLza0G#Lily Martin             1121042880000283
705bonus pay for amazing work on #OSS                                              00010000283
62223138010481967038518      0000100000#GeqMftiuLza0G#Lily Martin             1121042880000284
705bonus pay for amazing work on #OSS                                              00010000284
62223138010481967038518      0000100000#GeqMftiuLza0G#Lily Martin             1121042880000285
705bonus pay for amazing work on #OSS                                              00010000285
62223138010481967038518      0000100000#GeqMftiuLza0G#Lily Martin             1121042880000286
705bonus pay for amazing work on #OSS                                              00010000286
62223138010481967038518      0000100000#GeqMftiuLza0G#Lily Martin             1121042880000287
705bonus pay for amazing work on #OSS                                              00010000287
62223138010481967038518      0000100000#GeqMftiuLza0G#Lily Martin             1121042880000288
705bonus pay for amazing work on #OSS                                              00010000288
62223138010481967038518      0000100000#GeqMftiuLza0G#Lily Martin             1121042880000289
705bonus pay for amazing work on #OSS                                              00010000289
62223138010481967038518      0000100000#GeqMftiuLza0G#Lily Martin             1121042880000290
705bonus pay for amazing work on #OSS                                              00010000290
62223138010481967038518      0000100000#GeqMftiuLza0G#Lily Martin             1121042880000291
705bonus pay for amazing work on #OSS                                              00010000291
62223138010481967038518      0000100000#GeqMftiuLza0G#Lily Martin             1121042880000292
705bonus pay for amazing work on #OSS                                              00010000292
62223138010481967038518      0000100000#GeqMftiuLza0G#Lily Martin             1121042880000293
705bonus pay for amazing work on #OSS                                              00010000293
62223138010481967038518      0000100000#GeqMftiuLza0G#Lily Martin             1121042880000294
705bonus pay for amazing work on #OSS                                              00010000294
62223138010481967038518      0000100000#GeqMftiuLza0G#Lily Martin             1121042880000295
705bonus pay for amazing work on #OSS                                              00010000295
62223138010481967038518      0000100000#GeqMftiuLza0G#Lily Martin             1121042880000296
705bonus pay for amazing work on #OSS                                              00010000296
62223138010481967038518      0000100000#GeqMftiuLza0G#Lily Martin             1121042880000297
705bonus pay for amazing work on #OSS                                              00010000297
62223138010481967038518      0000100000#GeqMftiuLza0G#Lily Martin             1121042880000298
705bonus pay for amazing work on #OSS                                              00010000298
62223138010481967038518      0000100000#GeqMftiuLza0G#Lily Martin             1121042880000299
705bonus pay for amazing work on #OSS                                              00010000299
62223138010481967038518      0000100000#GeqMftiuLza0G#Lily Martin             1121042880000300
705bonus pay for amazing work on #OSS                                              00010000300
62223138010481967038518      0000100000#GeqMftiuLza0G#Lily Martin             1121042880000301
705bonus pay for amazing work on #OSS                                              00010000301
62223138010481967038518      0000100000#GeqMftiuLza0G#Lily Martin             1121042880000302
705bonus pay for amazing work on #OSS                                              00010000302
62223138010481967038518      0000100000#GeqMftiuLza0G#Lily Martin             1121042880000303
705bonus pay for amazing work on #OSS                                              00010000303
62223138010481967038518      0000100000#GeqMftiuLza0G#Lily Martin             1121042880000304
705bonus pay for amazing work on #OSS                                              00010000304
62223138010481967038518      0000100000#GeqMftiuLza0G#Lily Martin             1121042880000305
705bonus pay for amazing work on #OSS                                              00010000305
62223138010481967038518      0000100000#GeqMftiuLza0G#Lily Martin             1121042880000306
705bonus pay for amazing work on #OSS                                              00010000306
62223138010481967038518      0000100000#GeqMftiuLza0G#Lily Martin             1121042880000307
705bonus pay for amazing work on #OSS                                              00010000307
62223138010481967038518      0000100000#GeqMftiuLza0G#Lily Martin             1121042880000308
705bonus pay for amazing work on #OSS                                              00010000308
62223138010481967038518      0000100000#GeqMftiuLza0G#Lily Martin             1121042880000309
705bonus pay for amazing work on #OSS                                              00010000309
62223138010481967038518      0000100000#GeqMftiuLza0G#Lily Martin             1121042880000310
705bonus pay for amazing work on #OSS                                              00010000310
62223138010481967038518      0000100000#GeqMftiuLza0G#Lily Martin             1121042880000311
705bonus pay for amazing work on #OSS                                              00010000311
62223138010481967038518      0000100000#GeqMftiuLza0G#Lily Martin             1121042880000312
705bonus pay for amazing work on #OSS                                              00010000312
62223138010481967038518      0000100000#GeqMftiuLza0G#Lily Martin             1121042880000313
705bonus pay for amazing work on #OSS                                              00010000313
62223138010481967038518      0000100000#GeqMftiuLza0G#Lily Martin             1121042880000314
705bonus pay for amazing work on #OSS                                              00010000314
62223138010481967038518      0000100000#GeqMftiuLza0G#Lily Martin             1121042880000315
705bonus pay for amazing work on #OSS                                              00010000315
62223138010481967038518      0000100000#GeqMftiuLza0G#Lily Martin             1121042880000316
705bonus pay for amazing work on #OSS                                              00010000316
62223138010481967038518      0000100000#PBLQ7P1ORpj8z#Joshua Thompson         1121042880000317
705bonus pay for amazing work on #OSS                                              00010000317
62223138010481967038518      0000100000#PBLQ7P1ORpj8z#Joshua Thompson         1121042880000318
705bonus pay for amazing work on #OSS                                              00010000318
62223138010481967038518      0000100000#PBLQ7P1ORpj8z#Joshua Thompson         1121042880000319
705bonus pay for amazing work on #OSS                                              00010000319
62223138010481967038518      0000100000#PBLQ7P1ORpj8z#Joshua Thompson         1121042880000320
705bonus pay for amazing work on #OSS                                              00010000320
62223138010481967038518      0000100000#PBLQ7P1ORpj8z#Joshua Thompson         1121042880000321
705bonus pay for amazing work on #OSS                                              00010000321
62223138010481967038518      0000100000#PBLQ7P1ORpj8z#Joshua Thompson         1121042880000322
705bonus pay for amazing work on #OSS                                              00010000322
62223138010481967038518      0000100000#PBLQ7P1ORpj8z#Joshua Thompson         1121042880000323
705bonus pay for amazing work on #OSS                                              00010000323
62223138010481967038518      0000100000#PBLQ7P1ORpj8z#Joshua Thompson         1121042880000324
705bonus pay for amazing work on #OSS                                              00010000324
62223138010481967038518      0000100000#PBLQ7P1ORpj8z#Joshua Thompson         1121042880000325
705bonus pay for amazing work on #OSS                                              00010000325
62223138010481967038518      0000100000#PBLQ7P1ORpj8z#Joshua Thompson         1121042880000326
705bonus pay for amazing work on #OSS                                              00010000326
62223138010481967038518      0000100000#PBLQ7P1ORpj8z#Joshua Thompson         1121042880000327
705bonus pay for amazing work on #OSS                                              00010000327
62223138010481967038518      0000100000#PBLQ7P1ORpj8z#Joshua Thompson         1121042880000328
705bonus pay for amazing work on #OSS                                              00010000328
62223138010481967038518      0000100000#PBLQ7P1ORpj8z#Joshua Thompson         1121042880000329
705bonus pay for amazing work on #OSS                                              00010000329
62223138010481967038518      0000100000#PBLQ7P1ORpj8z#Joshua Thompson         1121042880000330
705bonus pay for amazing work on #OSS                                              00010000330
62223138010481967038518      0000100000#PBLQ7P1ORpj8z#Joshua Thompson         1121042880000331
705bonus pay for amazing work on #OSS                                              00010000331
62223138010481967038518      0000100000#PBLQ7P1ORpj8z#Joshua Thompson         1121042880000332
705bonus pay for amazing work on #OSS                                              00010000332
62223138010481967038518      0000100000#PBLQ7P1ORpj8z#Joshua Thompson         1121042880000333
705bonus pay for amazing work on #OSS                                              00010000333
62223138010481967038518      0000100000#PBLQ7P1ORpj8z#Joshua Thompson         1121042880000334
705bonus pay for amazing work on #OSS                                              00010000334
62223138010481967038518      0000100000#PBLQ7P1ORpj8z#Joshua Thompson         1121042880000335
705bonus pay for amazing work on #OSS                                              00010000335
62223138010481967038518      0000100000#PBLQ7P1ORpj8z#Joshua Thompson         1121042880000336
705bonus pay for amazing work on #OSS                                              00010000336
62223138010481967038518      0000100000#PBLQ7P1ORpj8z#Joshua Thompson         1121042880000337
705bonus pay for amazing work on #OSS                                              00010000337
62223138010481967038518      0000100000#PBLQ7P1ORpj8z#Joshua Thompson         1121042880000338
705bonus pay for amazing work on #OSS                                              00010000338
62223138010481967038518      0000100000#PBLQ7P1ORpj8z#Joshua Thompson         1121042880000339
705bonus pay for amazing work on #OSS                                              00010000339
62223138010481967038518      0000100000#PBLQ7P1ORpj8z#Joshua Thompson         1121042880000340
705bonus pay for amazing work on #OSS                                              00010000340
62223138010481967038518      0000100000#PBLQ7P1ORpj8z#Joshua Thompson         1121042880000341
705bonus pay for amazing work on #OSS                                              00010000341
62223138010481967038518      0000100000#PBLQ7P1ORpj8z#Joshua Thompson         1121042880000342
705bonus pay for amazing work on #OSS                                              00010000342
62223138010481967038518      0000100000#PBLQ7P1ORpj8z#Joshua Thompson         1121042880000343
705bonus pay for amazing work on #OSS                                              00010000343
62223138010481967038518      0000100000#PBLQ7P1ORpj8z#Joshua Thompson         1121042880000344
705bonus pay for amazing work on #OSS                                              00010000344
62223138010481967038518      0000100000#PBLQ7P1ORpj8z#Joshua Thompson         1121042880000345
705bonus pay for amazing work on #OSS                                              00010000345
62223138010481967038518      0000100000#PBLQ7P1ORpj8z#Joshua Thompson         1121042880000346
705bonus pay for amazing work on #OSS                                              00010000346
62223138010481967038518      0000100000#PBLQ7P1ORpj8z#Joshua Thompson         1121042880000347
705bonus pay for amazing work on #OSS                                              00010000347
62223138010481967038518      0000100000#PBLQ7P1ORpj8z#Joshua Thompson         1121042880000348
705bonus pay for amazing work on #OSS                                              00010000348
62223138010481967038518      0000100000#PBLQ7P1ORpj8z#Joshua Thompson         1121042880000349
705bonus pay for amazing work on #OSS                                              00010000349
62223138010481967038518      0000100000#PBLQ7P1ORpj8z#Joshua Thompson         1121042880000350
705bonus pay for amazing work on #OSS                                              00010000350
62223138010481967038518      0000100000#PBLQ7P1ORpj8z#Joshua Thompson         1121042880000351
705bonus pay for amazing work on #OSS                                              00010000351
62223138010481967038518      0000100000#PBLQ7P1ORpj8z#Joshua Thompson         1121042880000352
705bonus pay for amazing work on #OSS                                              00010000352
62223138010481967038518      0000100000#PBLQ7P1ORpj8z#Joshua Thompson         1121042880000353
705bonus pay for amazing work on #OSS                                              00010000353
62223138010481967038518      0000100000#PBLQ7P1ORpj8z#Joshua Thompson         1121042880000354
705bonus pay for amazing work on #OSS                                              00010000354
62223138010481967038518      0000100000#PBLQ7P1ORpj8z#Joshua Thompson         1121042880000355
705bonus pay for amazing work on #OSS                                              00010000355
62223138010481967038518      0000100000#PBLQ7P1ORpj8z#Joshua Thompson         1121042880000356
705bonus pay for amazing work on #OSS                                              00010000356
62223138010481967038518      0000100000#PBLQ7P1ORpj8z#Joshua Thompson         1121042880000357
705bonus pay for amazing work on #OSS                                              00010000357
62223138010481967038518      0000100000#PBLQ7P1ORpj8z#Joshua Thompson         1121042880000358
705bonus pay for amazing work on #OSS                                              00010000358
62223138010481967038518      0000100000#PBLQ7P1ORpj8z#Joshua Thompson         1121042880000359
705bonus pay for amazing work on #OSS                                              00010000359
62223138010481967038518      0000100000#PBLQ7P1ORpj8z#Joshua Thompson         1121042880000360
705bonus pay for amazing work on #OSS                                              00010000360
62223138010481967038518      0000100000#PBLQ7P1ORpj8z#Joshua Thompson         1121042880000361
705bonus pay for amazing work on #OSS                                              00010000361
62223138010481967038518      0000100000#PBLQ7P1ORpj8z#Joshua Thompson         1121042880000362
705bonus pay for amazing work on #OSS                                              00010000362
62223138010481967038518      0000100000#6MioPHg74TgsP#Joshua Wilson           1121042880000363
705bonus pay for amazing work on #OSS                                              00010000363
62223138010481967038518      0000100000#6MioPHg74TgsP#Mia Wilson              1121042880000364
705bonus pay for amazing work on #OSS                                              00010000364
62223138010481967038518      0000100000#6MioPHg74TgsP#Mia Wilson              1121042880000365
705bonus pay for amazing work on #OSS                                              00010000365
62223138010481967038518      0000100000#6MioPHg74TgsP#Mia Wilson              1121042880000366
705bonus pay for amazing work on #OSS                                              00010000366
62223138010481967038518      0000100000#6MioPHg74TgsP#Mia Wilson              1121042880000367
705bonus pay for amazing work on #OSS                                              00010000367
62223138010481967038518      0000100000#6MioPHg74TgsP#Mia Wilson              1121042880000368
705bonus pay for amazing work on #OSS                                              00010000368
62223138010481967038518      0000100000#6MioPHg74TgsP#Mia Wilson              1121042880000369
705bonus pay for amazing work on #OSS                                              00010000369
62223138010481967038518      0000100000#6MioPHg74TgsP#Mia Wilson              1121042880000370
705bonus pay for amazing work on #OSS                                              00010000370
62223138010481967038518      0000100000#6MioPHg74TgsP#Mia Wilson              1121042880000371
705bonus pay for amazing work on #OSS                                              00010000371
62223138010481967038518      0000100000#6MioPHg74TgsP#Mia Wilson              1121042880000372
705bonus pay for amazing work on #OSS                                              00010000372
62223138010481967038518      0000100000#6MioPHg74TgsP#Mia Wilson              1121042880000373
705bonus pay for amazing work on #OSS                                              00010000373
62223138010481967038518      0000100000#6MioPHg74TgsP#Mia Wilson              1121042880000374
705bonus pay for amazing work on #OSS                                              00010000374
62223138010481967038518      0000100000#6MioPHg74TgsP#Mia Wilson              1121042880000375
705bonus pay for amazing work on #OSS                                              00010000375
62223138010481967038518      0000100000#6MioPHg74TgsP#Mia Wilson              1121042880000376
705bonus pay for amazing work on #OSS                                              00010000376
62223138010481967038518      0000100000#6MioPHg74TgsP#Mia Wilson              1121042880000377
705bonus pay for amazing work on #OSS                                              00010000377
62223138010481967038518      0000100000#6MioPHg74TgsP#Mia Wilson              1121042880000378
705bonus pay for amazing work on #OSS                                              00010000378
62223138010481967038518      0000100000#6MioPHg74TgsP#Mia Wilson              1121042880000379
705bonus pay for amazing work on #OSS                                              00010000379
62223138010481967038518      0000100000#6MioPHg74TgsP#Mia Wilson              1121042880000380
705bonus pay for amazing work on #OSS                                              00010000380
62223138010481967038518      0000100000#6MioPHg74TgsP#Mia Wilson              1121042880000381
705bonus pay for amazing work on #OSS                                              00010000381
62223138010481967038518      0000100000#6MioPHg74TgsP#Mia Wilson              1121042880000382
705bonus pay for amazing work on #OSS                                              00010000382
62223138010481967038518      0000100000#6MioPHg74TgsP#Mia Wilson              1121042880000383
705bonus pay for amazing work on #OSS                                              00010000383
62223138010481967038518      0000100000#6MioPHg74TgsP#Mia Wilson              1121042880000384
705bonus pay for amazing work on #OSS                                              00010000384
62223138010481967038518      0000100000#6MioPHg74TgsP#Mia Wilson              1121042880000385
705bonus pay for amazing work on #OSS                                              00010000385
62223138010481967038518      0000100000#6MioPHg74TgsP#Mia Wilson              1121042880000386
705bonus pay for amazing work on #OSS                                              00010000386
62223138010481967038518      0000100000#6MioPHg74TgsP#Mia Wilson              1121042880000387
705bonus pay for amazing work on #OSS                                              00010000387
62223138010481967038518      0000100000#6MioPHg74TgsP#Mia Wilson              1121042880000388
705bonus pay for amazing work on #OSS                                              00010000388
62223138010481967038518      0000100000#6MioPHg74TgsP#Mia Wilson              1121042880000389
705bonus pay for amazing work on #OSS                                              00010000389
62223138010481967038518      0000100000#6MioPHg74TgsP#Mia Wilson              1121042880000390
705bonus pay for amazing work on #OSS                                              00010000390
62223138010481967038518      0000100000#6MioPHg74TgsP#Mia Wilson              1121042880000391
705bonus pay for amazing work on #OSS                                              00010000391
62223138010481967038518      0000100000#6MioPHg74TgsP#Mia Wilson              1121042880000392
705bonus pay for amazing work on #OSS                                              00010000392
62223138010481967038518      0000100000#6MioPHg74TgsP#Mia Wilson              1121042880000393
705bonus pay for amazing work on #OSS                                              00010000393
62223138010481967038518      0000100000#6MioPHg74TgsP#Mia Wilson              1121042880000394
705bonus pay for amazing work on #OSS                                              00010000394
62223138010481967038518      0000100000#6MioPHg74TgsP#Mia Wilson              1121042880000395
705bonus pay for amazing work on #OSS                                              00010000395
62223138010481967038518      0000100000#6MioPHg74TgsP#Mia Wilson              1121042880000396
705bonus pay for amazing work on #OSS                                              00010000396
62223138010481967038518      0000100000#6MioPHg74TgsP#Mia Wilson              1121042880000397
705bonus pay for amazing work on #OSS                                              00010000397
62223138010481967038518      0000100000#6MioPHg74TgsP#Mia Wilson              1121042880000398
705bonus pay for amazing work on #OSS                                              00010000398
62223138010481967038518      0000100000#6MioPHg74TgsP#Mia Wilson              1121042880000399
705bonus pay for amazing work on #OSS                                              00010000399
62223138010481967038518      0000100000#6MioPHg74TgsP#Mia Wilson              1121042880000400
705bonus pay for amazing work on #OSS                                              00010000400
62223138010481967038518      0000100000#6MioPHg74TgsP#Mia Wilson              1121042880000401
705bonus pay for amazing work on #OSS                                              00010000401
62223138010481967038518      0000100000#6MioPHg74TgsP#Mia Wilson              1121042880000402
705bonus pay for amazing work on #OSS                                              00010000402
62223138010481967038518      0000100000#6MioPHg74TgsP#Mia Wilson              1121042880000403
705bonus pay for amazing work on #OSS                                              00010000403
62223138010481967038518      0000100000#6MioPHg74TgsP#Mia Wilson              1121042880000404
705bonus pay for amazing work on #OSS                                              00010000404
62223138010481967038518      0000100000#drJPHD6ZooZXd#Jacob Smith             1121042880000405
705bonus pay for amazing work on #OSS                                              00010000405
62223138010481967038518      0000100000#drJPHD6ZooZXd#Jacob Smith             1121042880000406
705bonus pay for amazing work on #OSS                                              00010000406
62223138010481967038518      0000100000#drJPHD6ZooZXd#Jacob Smith             1121042880000407
705bonus pay for amazing work on #OSS                                              00010000407
62223138010481967038518      0000100000#drJPHD6ZooZXd#Jacob Smith             1121042880000408
705bonus pay for amazing work on #OSS                                              00010000408
62223138010481967038518      0000100000#drJPHD6ZooZXd#Jacob Smith             1121042880000409
705bonus pay for amazing work on #OSS                                              00010000409
62223138010481967038518      0000100000#drJPHD6ZooZXd#Jacob Smith             1121042880000410
705bonus pay for amazing work on #OSS                                              00010000410
62223138010481967038518      0000100000#drJPHD6ZooZXd#Jacob Smith             1121042880000411
705bonus pay for amazing work on #OSS                                              00010000411
62223138010481967038518      0000100000#drJPHD6ZooZXd#Jacob Smith             1121042880000412
705bonus pay for amazing work on #OSS                                              00010000412
62223138010481967038518      0000100000#drJPHD6ZooZXd#Jacob Smith             1121042880000413
705bonus pay for amazing work on #OSS                                              00010000413
62223138010481967038518      0000100000#drJPHD6ZooZXd#Jacob Smith             1121042880000414
705bonus pay for amazing work on #OSS                                              00010000414
62223138010481967038518      0000100000#drJPHD6ZooZXd#Jacob Smith             1121042880000415
705bonus pay for amazing work on #OSS                                              00010000415
62223138010481967038518      0000100000#drJPHD6ZooZXd#Jacob Smith             1121042880000416
705bonus pay for amazing work on #OSS                                              00010000416
62223138010481967038518      0000100000#drJPHD6ZooZXd#Jacob Smith             1121042880000417
705bonus pay for amazing work on #OSS                                              00010000417
62223138010481967038518      0000100000#drJPHD6ZooZXd#Jacob Smith             1121042880000418
705bonus pay for amazing work on #OSS                                              00010000418
62223138010481967038518      0000100000#drJPHD6ZooZXd#Jacob Smith             1121042880000419
705bonus pay for amazing work on #OSS                                              00010000419
62223138010481967038518      0000100000#drJPHD6ZooZXd#Jacob Smith             1121042880000420
705bonus pay for amazing work on #OSS                                              00010000420
62223138010481967038518      0000100000#drJPHD6ZooZXd#Jacob Smith             1121042880000421
705bonus pay for amazing work on #OSS                                              00010000421
62223138010481967038518      0000100000#drJPHD6ZooZXd#Jacob Smith             1121042880000422
705bonus pay for amazing work on #OSS                                              00010000422
62223138010481967038518      0000100000#drJPHD6ZooZXd#Jacob Smith             1121042880000423
705bonus pay for amazing work on #OSS                                              00010000423
62223138010481967038518      0000100000#drJPHD6ZooZXd#Jacob Smith             1121042880000424
705bonus pay for amazing work on #OSS                                              00010000424
62223138010481967038518      0000100000#drJPHD6ZooZXd#Jacob Smith             1121042880000425
705bonus pay for amazing work on #OSS                                              00010000425
62223138010481967038518      0000100000#drJPHD6ZooZXd#Jacob Smith             1121042880000426
705bonus pay for amazing work on #OSS                                              00010000426
62223138010481967038518      0000100000#drJPHD6ZooZXd#Jacob Smith             1121042880000427
705bonus pay for amazing work on #OSS                                              00010000427
62223138010481967038518      0000100000#drJPHD6ZooZXd#Jacob Smith             1121042880000428
705bonus pay for amazing work on #OSS                                              00010000428
62223138010481967038518      0000100000#drJPHD6ZooZXd#Jacob Smith             1121042880000429
705bonus pay for amazing work on #OSS                                              00010000429
62223138010481967038518      0000100000#drJPHD6ZooZXd#Jacob Smith             1121042880000430
705bonus pay for amazing work on #OSS                                              00010000430
62223138010481967038518      0000100000#drJPHD6ZooZXd#Jacob Smith             1121042880000431
705bonus pay for amazing work on #OSS                                              00010000431
62223138010481967038518      0000100000#drJPHD6ZooZXd#Jacob Smith             1121042880000432
705bonus pay for amazing work on #OSS                                              00010000432
62223138010481967038518      0000100000#drJPHD6ZooZXd#Jacob Smith             1121042880000433
705bonus pay for amazing work on #OSS                                              00010000433
62223138010481967038518      0000100000#drJPHD6ZooZXd#Jacob Smith             1121042880000434
705bonus pay for amazing work on #OSS                                              00010000434
62223138010481967038518      0000100000#drJPHD6ZooZXd#Jacob Smith             1121042880000435
705bonus pay for amazing work on #OSS                                              00010000435
62223138010481967038518      0000100000#drJPHD6ZooZXd#Jacob Smith             1121042880000436
705bonus pay for amazing work on #OSS                                              00010000436
62223138010481967038518      0000100000#drJPHD6ZooZXd#Jacob Smith             1121042880000437
705bonus pay for amazing work on #OSS                                              00010000437
62223138010481967038518      0000100000#drJPHD6ZooZXd#Jacob Smith             1121042880000438
705bonus pay for amazing work on #OSS                                              00010000438
62223138010481967038518      0000100000#drJPHD6ZooZXd#Jacob Smith             1121042880000439
705bonus pay for amazing work on #OSS                                              00010000439
62223138010481967038518      0000100000#drJPHD6ZooZXd#Jacob Smith             1121042880000440
705bonus pay for amazing work on #OSS                                              00010000440
62223138010481967038518      0000100000#drJPHD6ZooZXd#Jacob Smith             1121042880000441
705bonus pay for amazing work on #OSS                                              00010000441
62223138010481967038518      0000100000#drJPHD6ZooZXd#Jacob Smith             1121042880000442
705bonus pay for amazing work on #OSS                                              00010000442
62223138010481967038518      0000100000#drJPHD6ZooZXd#Jacob Smith             1121042880000443
705bonus pay for amazing work on #OSS                                              00010000443
62223138010481967038518      0000100000#drJPHD6ZooZXd#Jacob Smith             1121042880000444
705bonus pay for amazing work on #OSS                                              00010000444
62223138010481967038518      0000100000#drJPHD6ZooZXd#Jacob Smith             1121042880000445
705bonus pay for amazing work on #OSS                                              00010000445
62223138010481967038518      0000100000#drJPHD6ZooZXd#Jacob Smith             1121042880000446
705bonus pay for amazing work on #OSS                                              00010000446
62223138010481967038518      0000100000#8zLmN5tRw4DAs#Mia Wilson              1121042880000447
705bonus pay for amazing work on #OSS                                              00010000447
62223138010481967038518      0000100000#8zLmN5tRw4DAs#Mia Wilson              1121042880000448
705bonus pay for amazing work on #OSS                                              00010000448
62223138010481967038518      0000100000#8zLmN5tRw4DAs#Mia Wilson              1121042880000449
705bonus pay for amazing work on #OSS                                              00010000449
62223138010481967038518      0000100000#8zLmN5tRw4DAs#Mia Wilson              1121042880000450
705bonus pay for amazing work on #OSS                                              00010000450
62223138010481967038518      0000100000#8zLmN5tRw4DAs#Mia Wilson              1121042880000451
705bonus pay for amazing work on #OSS                                              00010000451
62223138010481967038518      0000100000#8zLmN5tRw4DAs#Mia Wilson              1121042880000452
705bonus pay for amazing work on #OSS                                              00010000452
62223138010481967038518      0000100000#8zLmN5tRw4DAs#Mia Wilson              1121042880000453
705bonus pay for amazing work on #OSS                                              00010000453
62223138010481967038518      0000100000#8zLmN5tRw4DAs#Mia Wilson              1121042880000454
705bonus pay for amazing work on #OSS                                              00010000454
62223138010481967038518      0000100000#8zLmN5tRw4DAs#Mia Wilson              1121042880000455
705bonus pay for amazing work on #OSS                                              00010000455
62223138010481967038518      0000100000#8zLmN5tRw4DAs#Mia Wilson              1121042880000456
705bonus pay for amazing work on #OSS                                              00010000456
62223138010481967038518      0000100000#8zLmN5tRw4DAs#Mia Wilson              1121042880000457
705bonus pay for amazing work on #OSS                                              00010000457
62223138010481967038518      0000100000#8zLmN5tRw4DAs#Mia Wilson              1121042880000458
705bonus pay for amazing work on #OSS                                              00010000458
62223138010481967038518      0000100000#8zLmN5tRw4DAs#Mia Wilson              1121042880000459
705bonus pay for amazing work on #OSS                                              00010000459
62223138010481967038518      0000100000#8zLmN5tRw4DAs#Mia Wilson              1121042880000460
705bonus pay for amazing work on #OSS                                              00010000460
62223138010481967038518      0000100000#8zLmN5tRw4DAs#Mia Wilson              1121042880000461
705bonus pay for amazing work on #OSS                                              00010000461
62223138010481967038518      0000100000#8zLmN5tRw4DAs#Mia Wilson              1121042880000462
705bonus pay for amazing work on #OSS                                              00010000462
62223138010481967038518      0000100000#8zLmN5tRw4DAs#Mia Wilson              1121042880000463
705bonus pay for amazing work on #OSS                                              00010000463
62223138010481967038518      0000100000#8zLmN5tRw4DAs#Mia Wilson              1121042880000464
705bonus pay for amazing work on #OSS                                              00010000464
62223138010481967038518      0000100000#8zLmN5tRw4DAs#Mia Wilson              1121042880000465
705bonus pay for amazing work on #OSS                                              00010000465
62223138010481967038518      0000100000#8zLmN5tRw4DAs#Mia Wilson              1121042880000466
705bonus pay for amazing work on #OSS                                              00010000466
62223138010481967038518      0000100000#8zLmN5tRw4DAs#Mia Wilson              1121042880000467
705bonus pay for amazing work on #OSS                                              00010000467
62223138010481967038518      0000100000#8zLmN5tRw4DAs#Mia Wilson              1121042880000468
705bonus pay for amazing work on #OSS                                              00010000468
62223138010481967038518      0000100000#8zLmN5tRw4DAs#Mia Wilson              1121042880000469
705bonus pay for amazing work on #OSS                                              00010000469
62223138010481967038518      0000100000#8zLmN5tRw4DAs#Mia Wilson              1121042880000470
705bonus pay for amazing work on #OSS                                              00010000470
62223138010481967038518      0000100000#8zLmN5tRw4DAs#Mia Wilson              1121042880000471
705bonus pay for amazing work on #OSS                                              00010000471
62223138010481967038518      0000100000#8zLmN5tRw4DAs#Mia Wilson              1121042880000472
705bonus pay for amazing work on #OSS                                              00010000472
62223138010481967038518      0000100000#8zLmN5tRw4DAs#Mia Wilson              1121042880000473
705bonus pay for amazing work on #OSS                                              00010000473
62223138010481967038518      0000100000#8zLmN5tRw4DAs#Mia Wilson              1121042880000474
705bonus pay for amazing work on #OSS                                              00010000474
62223138010481967038518      0000100000#8zLmN5tRw4DAs#Mia Wilson              1121042880000475
705bonus pay for amazing work on #OSS                                              00010000475
62223138010481967038518      0000100000#8zLmN5tRw4DAs#Mia Wilson              1121042880000476
705bonus pay for amazing work on #OSS                                              00010000476
62223138010481967038518      0000100000#8zLmN5tRw4DAs#Mia Wilson              1121042880000477
705bonus pay for amazing work on #OSS                                              00010000477
62223138010481967038518      0000100000#8zLmN5tRw4DAs#Mia Wilson              1121042880000478
705bonus pay for amazing work on #OSS                                              00010000478
62223138010481967038518      0000100000#8zLmN5tRw4DAs#Mia Wilson              1121042880000479
705bonus pay for amazing work on #OSS                                              00010000479
62223138010481967038518      0000100000#8zLmN5tRw4DAs#Mia Wilson              1121042880000480
705bonus pay for amazing work on #OSS                                              00010000480
62223138010481967038518      0000100000#8zLmN5tRw4DAs#Mia Wilson              1121042880000481
705bonus pay for amazing work on #OSS                                              00010000481
62223138010481967038518      0000100000#8zLmN5tRw4DAs#Mia Wilson              1121042880000482
705bonus pay for amazing work on #OSS                                              00010000482
62223138010481967038518      0000100000#8zLmN5tRw4DAs#Mia Wilson              1121042880000483
705bonus pay for amazing work on #OSS                                              00010000483
62223138010481967038518      0000100000#8zLmN5tRw4DAs#Mia Wilson              1121042880000484
705bonus pay for amazing work on #OSS                                              00010000484
62223138010481967038518      0000100000#8zLmN5tRw4DAs#Mia Wilson              1121042880000485
705bonus pay for amazing work on #OSS                                              00010000485
62223138010481967038518      0000100000#8zLmN5tRw4DAs#Mia Wilson              1121042880000486
705bonus pay for amazing work on #OSS                                              00010000486
62223138010481967038518      0000100000#8zLmN5tRw4DAs#Mia Wilson              1121042880000487
705bonus pay for amazing work on #OSS                                              00010000487
62223138010481967038518      0000100000#8zLmN5tRw4DAs#Mia Wilson              1121042880000488
705bonus pay for amazing work on #OSS                                              00010000488
62223138010481967038518      0000100000#8zLmN5tRw4DAs#Mia Wilson              1121042880000489
705bonus pay for amazing work on #OSS                                              00010000489
62223138010481967038518      0000100000#8zLmN5tRw4DAs#Mia Wilson              1121042880000490
705bonus pay for amazing work on #OSS                                              00010000490
62223138010481967038518      0000100000#8zLmN5tRw4DAs#Mia Wilson              1121042880000491
705bonus pay for amazing work on #OSS                                              00010000491
62223138010481967038518      0000100000#8zLmN5tRw4DAs#Mia Wilson              1121042880000492
705bonus pay for amazing work on #OSS                                              00010000492
62223138010481967038518      0000100000#3W68qcMvpkHe3#Jacob Smith             1121042880000493
705bonus pay for amazing work on #OSS                                              00010000493
62223138010481967038518      0000100000#3W68qcMvpkHe3#Jacob Smith             1121042880000494
705bonus pay for amazing work on #OSS                                              00010000494
62223138010481967038518      0000100000#3W68qcMvpkHe3#Jacob Smith             1121042880000495
705bonus pay for amazing work on #OSS                                              00010000495
62223138010481967038518      0000100000#3W68qcMvpkHe3#Jacob Smith             1121042880000496
705bonus pay for amazing work on #OSS                                              00010000496
62223138010481967038518      0000100000#3W68qcMvpkHe3#Jacob Smith             1121042880000497
705bonus pay for amazing work on #OSS                                              00010000497
62223138010481967038518      0000100000#3W68qcMvpkHe3#Jacob Smith             1121042880000498
705bonus pay for amazing work on #OSS                                              00010000498
62223138010481967038518      0000100000#3W68qcMvpkHe3#Jacob Smith             1121042880000499
705bonus pay for amazing work on #OSS                                              00010000499
62223138010481967038518      0000100000#3W68qcMvpkHe3#Jacob Smith             1121042880000500
705bonus pay for amazing work on #OSS                                              00010000500
62223138010481967038518      0000100000#3W68qcMvpkHe3#Jacob Smith             1121042880000501
705bonus pay for amazing work on #OSS                                              00010000501
62223138010481967038518      0000100000#3W68qcMvpkHe3#Jacob Smith             1121042880000502
705bonus pay for amazing work on #OSS                                              00010000502
62223138010481967038518      0000100000#3W68qcMvpkHe3#Jacob Smith             1121042880000503
705bonus pay for amazing work on #OSS                                              00010000503
62223138010481967038518      0000100000#3W68qcMvpkHe3#Jacob Smith             1121042880000504
705bonus pay for amazing work on #OSS                                              00010000504
62223138010481967038518      0000100000#3W68qcMvpkHe3#Jacob Smith             1121042880000505
705bonus pay for amazing work on #OSS                                              00010000505
62223138010481967038518      0000100000#3W68qcMvpkHe3#Jacob Smith             1121042880000506
705bonus pay for amazing work on #OSS                                              00010000506
62223138010481967038518      0000100000#3W68qcMvpkHe3#Jacob Smith             1121042880000507
705bonus pay for amazing work on #OSS                                              00010000507
62223138010481967038518      0000100000#3W68qcMvpkHe3#Jacob Smith             1121042880000508
705bonus pay for amazing work on #OSS                                              00010000508
62223138010481967038518      0000100000#3W68qcMvpkHe3#Jacob Smith             1121042880000509
705bonus pay for amazing work on #OSS                                              00010000509
62223138010481967038518      0000100000#3W68qcMvpkHe3#Jacob Smith             1121042880000510
705bonus pay for amazing work on #OSS                                              00010000510
62223138010481967038518      0000100000#3W68qcMvpkHe3#Jacob Smith             1121042880000511
705bonus pay for amazing work on #OSS                                              00010000511
62223138010481967038518      0000100000#3W68qcMvpkHe3#Jacob Smith             1121042880000512
705bonus pay for amazing work on #OSS                                              00010000512
62223138010481967038518      0000100000#3W68qcMvpkHe3#Jacob Smith             1121042880000513
705bonus pay for amazing work on #OSS                                              00010000513
62223138010481967038518      0000100000#3W68qcMvpkHe3#Jacob Smith             1121042880000514
705bonus pay for amazing work on #OSS                                              00010000514
62223138010481967038518      0000100000#3W68qcMvpkHe3#Jacob Smith             1121042880000515
705bonus pay for amazing work on #OSS                                              00010000515
62223138010481967038518      0000100000#3W68qcMvpkHe3#Jacob Smith             1121042880000516
705bonus pay for amazing work on #OSS                                              00010000516
62223138010481967038518      0000100000#3W68qcMvpkHe3#Jacob Smith             1121042880000517
705bonus pay for amazing work on #OSS                                              00010000517
62223138010481967038518      0000100000#3W68qcMvpkHe3#Jacob Smith             1121042880000518
705bonus pay for amazing work on #OSS                                              00010000518
62223138010481967038518      0000100000#3W68qcMvpkHe3#Jacob Smith             1121042880000519
705bonus pay for amazing work on #OSS                                              00010000519
62223138010481967038518      0000100000#3W68qcMvpkHe3#Jacob Smith             1121042880000520
705bonus pay for amazing work on #OSS                                              00010000520
62223138010481967038518      0000100000#3W68qcMvpkHe3#Jacob Smith             1121042880000521
705bonus pay for amazing work on #OSS                                              00010000521
62223138010481967038518      0000100000#3W68qcMvpkHe3#Jacob Smith             1121042880000522
705bonus pay for amazing work on #OSS                                              00010000522
62223138010481967038518      0000100000#3W68qcMvpkHe3#Jacob Smith             1121042880000523
705bonus pay for amazing work on #OSS                                              00010000523
62223138010481967038518      0000100000#3W68qcMvpkHe3#Jacob Smith             1121042880000524
705bonus pay for amazing work on #OSS                                              00010000524
62223138010481967038518      0000100000#3W68qcMvpkHe3#Jacob Smith             1121042880000525
705bonus pay for amazing work on #OSS                                              00010000525
