101 231380104 1210428822001171418A094101Citadel                Wells Fargo                    
5200Wells Fargo                         121042882 PPDTrans. Des      200118   1121042880000001
622231380104032812267171545110000000000#477301545636# Aubrey Anderson         1121042880000001
705Shriekerdew bonus pay for amazing work on #OSS                                  00010000001
622231380104338814313314487880000000000#132522337527# Mia Taylor              1121042880000002
705Spritefuschia bonus pay for amazing work on #OSS                                00010000002
622231380104211052814810278880000000000#084775043065# Emma Martinez           1121042880000003
705Koalacitrine bonus pay for amazing work on #OSS                                 00010000003
622231380104277860824861066330000000000#332863025108# Olivia Jones            1121042880000004
705Horsesour bonus pay for amazing work on #OSS                                    00010000004
622231380104317667724020104350000000000#486120124355# Lily Williams           1121042880000005
705Pipersunset bonus pay for amazing work on #OSS                                  00010000005
622231380104047664204642367580000000000#763745066301# Mason Smith             1121042880000006
705Fancierrapid bonus pay for amazing work on #OSS                                 00010000006
622231380104855346843716005760000000000#255707605155# Olivia Harris           1121042880000007
705Knifeslime bonus pay for amazing work on #OSS                                   00010000007
622231380104580142355872244530000000000#166260206075# Benjamin Garcia         1121042880000008
705Chopperdeep bonus pay for amazing work on #OSS                                  00010000008
622231380104757176036772108230000000000#525420712615# Joseph Davis            1121042880000009
705Shakerpuzzle bonus pay for amazing work on #OSS                                 00010000009
622231380104611367102770303670000000000#854870601767# Ethan Williams          1121042880000010
705Facelove bonus pay for amazing work on #OSS                                     00010000010
622231380104016240356128267380000000000#337817857405# David Brown             1121042880000011
705Killerstar bonus pay for amazing work on #OSS                                   00010000011
622231380104343664743680132400000000000#608561220086# Ella Johnson            1121042880000012
705Fairyrift bonus pay for amazing work on #OSS                                    00010000012
622231380104805153026308585850000000000#412058825764# Daniel Harris           1121042880000013
705Donkeyprickle bonus pay for amazing work on #OSS                                00010000013
622231380104156828345740452220000000000#705884646276# Sofia Garcia            1121042880000014
705Viperribbon bonus pay for amazing work on #OSS                                  00010000014
622231380104808872574552407180000000000#810752033826# Jacob Davis             1121042880000015
705Rippernotch bonus pay for amazing work on #OSS                                  00010000015
622231380104742070828755623800000000000#014533122444# Mason Garcia            1121042880000016
705Reaperpebble bonus pay for amazing work on #OSS                                 00010000016
622231380104777381316552810510000000000#452422348534# Zoey Brown              1121042880000017
705Tailbig bonus pay for amazing work on #OSS                                      00010000017
622231380104705730037107357780000000000#335874203530# Charlotte Miller        1121042880000018
705Friendsugar bonus pay for amazing work on #OSS                                  00010000018
622231380104501488160471122410000000000#741200210200# Emily White             1121042880000019
705Lighterlaser bonus pay for amazing work on #OSS                                 00010000019
622231380104668555605535512110000000000#356835706162# Jacob Brown             1121042880000020
705Dragonlie bonus pay for amazing work on #OSS                                    00010000020
622231380104056527325747124710000000000#642811183712# Lily Thomas             1121042880000021
705Edgeplatinum bonus pay for amazing work on #OSS                                 00010000021
622231380104770722087103505780000000000#072051300553# Joseph Wilson           1121042880000022
705Stallionmisty bonus pay for amazing work on #OSS                                00010000022
622231380104328074105834101210000000000#715348446480# Mason Martinez          1121042880000023
705Leadersprout bonus pay for amazing work on #OSS                                 00010000023
622231380104676227018811710580000000000#644206571227# William Williams        1121042880000024
705Snapseason bonus pay for amazing work on #OSS                                   00010000024
622231380104847174867774560020000000000#085188678838# Mia Moore               1121042880000025
705Roarcliff bonus pay for amazing work on #OSS                                    00010000025
622231380104202148431211230780000000000#104851155311# Sofia Miller            1121042880000026
705Chillerfast bonus pay for amazing work on #OSS                                  00010000026
622231380104331888483366023210000000000#554641765453# Addison White           1121042880000027
705Flyfield bonus pay for amazing work on #OSS                                     00010000027
622231380104825343442210563470000000000#258701755522# James Wilson            1121042880000028
705Pawlight bonus pay for amazing work on #OSS                                     00010000028
622231380104285083678328534740000000000#800310663011# Joseph Robinson         1121042880000029
705Cockatoooil bonus pay for amazing work on #OSS                                  00010000029
622231380104175857745700513070000000000#273405272385# Ella Martinez           1121042880000030
705Stalliongrave bonus pay for amazing work on #OSS                                00010000030
622231380104222730137654465670000000000#226688734714# Charlotte Anderson      1121042880000031
705Hoofsquare bonus pay for amazing work on #OSS                                   00010000031
622231380104843378803040702770000000000#774130114687# William Thomas          1121042880000032
705Dutchessforest bonus pay for amazing work on #OSS                               00010000032
622231380104885830758606852720000000000#213636780770# Elizabeth Jackson       1121042880000033
705Kangarooquartz bonus pay for amazing work on #OSS                               00010000033
622231380104738736870257373200000000000#644537436443# Sophia Johnson          1121042880000034
705Howlerchatter bonus pay for amazing work on #OSS                                00010000034
622231380104300266060322023650000000000#552686460717# Emily Moore             1121042880000035
705Whiprust bonus pay for amazing work on #OSS                                     00010000035
622231380104365607837122856600000000000#068646780744# James Moore             1121042880000036
705Beakpie bonus pay for amazing work on #OSS                                      00010000036
622231380104415865150320020530000000000#327073628830# Lily Johnson            1121042880000037
705Forgersilk bonus pay for amazing work on #OSS                                   00010000037
622231380104580868537502688480000000000#424652524223# Ava White               1121042880000038
705Spritearrow bonus pay for amazing work on #OSS                                  00010000038
622231380104785575561028005370000000000#643735385827# Zoey Williams           1121042880000039
705Sentryred bonus pay for amazing work on #OSS                                    00010000039
622231380104066383786623835170000000000#804755643454# Ethan Johnson           1121042880000040
705Bitefir bonus pay for amazing work on #OSS                                      00010000040
622231380104413776571212460460000000000#726360516410# Elizabeth Williams      1121042880000041
705Crestwind bonus pay for amazing work on #OSS                                    00010000041
622231380104700230620443138070000000000#870434564503# Ethan Jackson           1121042880000042
705Seerfair bonus pay for amazing work on #OSS                                     00010000042
622231380104482385670358455040000000000#540510218451# Aiden Anderson          1121042880000043
705Stingfluff bonus pay for amazing work on #OSS                                   00010000043
622231380104647138786203416680000000000#223315630113# Avery Taylor            1121042880000044
705Shiftpsychadelic bonus pay for amazing work on #OSS                             00010000044
622231380104860770308143237080000000000#884256365321# Avery Jackson           1121042880000045
705Followermint bonus pay for amazing work on #OSS                                 00010000045
622231380104733722106058863650000000000#703257712253# Emma Johnson            1121042880000046
705Speartwilight bonus pay for amazing work on #OSS                                00010000046
622231380104241664326660564060000000000#378866358362# David Garcia            1121042880000047
705Wanderermagenta bonus pay for amazing work on #OSS                              00010000047
622231380104887665725852164800000000000#702225025855# Michael Johnson         1121042880000048
705Ridermint bonus pay for amazing work on #OSS                                    00010000048
622231380104245764862704631650000000000#021863731337# Sophia Martin           1121042880000049
705Burnchain bonus pay for amazing work on #OSS                                    00010000049
622231380104038816754116645200000000000#583033823302# Elizabeth Jackson       1121042880000050
705Ratjelly bonus pay for amazing work on #OSS                                     00010000050
622231380104427448201462367160000000000#132023050133# Sofia White             1121042880000051
705Terrierfrost bonus pay for amazing work on #OSS                                 00010000051
622231380104305666034685580440000000000#333752673515# Ella Jackson            1121042880000052
705Kingflannel bonus pay for amazing work on #OSS                                  00010000052
622231380104877244882083316730000000000#807373348803# Avery Davis             1121042880000053
705Scaledenim bonus pay for amazing work on #OSS                                   00010000053
622231380104355270763357118850000000000#780517128186# Zoey Williams           1121042880000054
705Toucanmango bonus pay for amazing work on #OSS                                  00010000054
622231380104815274206644147830000000000#026157515484# Elijah White            1121042880000055
705Speakerwhip bonus pay for amazing work on #OSS                                  00010000055
622231380104463811470561301120000000000#074338448712# Elizabeth Wilson        1121042880000056
705Handcitrine bonus pay for amazing work on #OSS                                  00010000056
622231380104846562384675873140000000000#664501172650# Mason Davis             1121042880000057
705Museebony bonus pay for amazing work on #OSS                                    00010000057
622231380104668475886128830320000000000#026011006402# Daniel Miller           1121042880000058
705Ravenbloom bonus pay for amazing work on #OSS                                   00010000058
622231380104133200224887617480000000000#213210584345# Avery Smith             1121042880000059
705Thumbfish bonus pay for amazing work on #OSS                                    00010000059
622231380104715804566661310630000000000#612463051482# Emma White              1121042880000060
705Knaveveil bonus pay for amazing work on #OSS                                    00010000060
622231380104427362440485228360000000000#104688175340# Avery White             1121042880000061
705Riderfossil bonus pay for amazing work on #OSS                                  00010000061
622231380104077373100541555080000000000#606462823183# Michael Smith           1121042880000062
705Stormsilver bonus pay for amazing work on #OSS                                  00010000062
622231380104847030280781775310000000000#201247075634# Ella Davis              1121042880000063
705Spearriver bonus pay for amazing work on #OSS                                   00010000063
622231380104643507542038464170000000000#008668844537# Mason Thomas            1121042880000064
705Carpetsplash bonus pay for amazing work on #OSS                                 00010000064
622231380104403234461620868110000000000#075425455432# Jayden Wilson           1121042880000065
705Slothsilent bonus pay for amazing work on #OSS                                  00010000065
622231380104805768443647862630000000000#526216760706# Ethan Garcia            1121042880000066
705Scribepale bonus pay for amazing work on #OSS                                   00010000066
622231380104076318284622184600000000000#341265882018# Natalie Moore           1121042880000067
705Scardesert bonus pay for amazing work on #OSS                                   00010000067
622231380104335316816133623830000000000#570518515057# Ethan White             1121042880000068
705Otterrampant bonus pay for amazing work on #OSS                                 00010000068
622231380104173128760284603500000000000#131102461161# Avery White             1121042880000069
705Oxjuniper bonus pay for amazing work on #OSS                                    00010000069
622231380104257488618400157510000000000#723301026163# David Anderson          1121042880000070
705Fairybranch bonus pay for amazing work on #OSS                                  00010000070
622231380104405650642718563340000000000#358603878087# Ava Brown               1121042880000071
705Princestar bonus pay for amazing work on #OSS                                   00010000071
622231380104473501113630827800000000000#881864147660# Jacob Thompson          1121042880000072
705Unicornrift bonus pay for amazing work on #OSS                                  00010000072
622231380104142878837655658680000000000#080464785303# Alexander Anderson      1121042880000073
705Devourerstream bonus pay for amazing work on #OSS                               00010000073
622231380104847647257713723800000000000#662355757068# Jayden Thomas           1121042880000074
705Trackfern bonus pay for amazing work on #OSS                                    00010000074
622231380104000858825257236180000000000#541708143558# Zoey Brown              1121042880000075
705Swoopfree bonus pay for amazing work on #OSS                                    00010000075
622231380104752615318711074460000000000#660433141630# Alexander Wilson        1121042880000076
705Slavewood bonus pay for amazing work on #OSS                                    00010000076
622231380104854878525851853200000000000#050846173418# Sophia Johnson          1121042880000077
705Edgedog bonus pay for amazing work on #OSS                                      00010000077
622231380104560141002047360650000000000#843231473062# Emily White             1121042880000078
705Ravencotton bonus pay for amazing work on #OSS                                  00010000078
622231380104752316768376214130000000000#038227465124# Aiden Anderson          1121042880000079
705Nosecrocus bonus pay for amazing work on #OSS                                   00010000079
622231380104820747176738277260000000000#225133853008# Mason Moore             1121042880000080
705Curtainlapis bonus pay for amazing work on #OSS                                 00010000080
622231380104435042825463762270000000000#470845286541# Olivia Johnson          1121042880000081
705Lordcliff bonus pay for amazing work on #OSS                                    00010000081
622231380104142375264047060170000000000#454120250378# Ella Garcia             1121042880000082
705Divealmond bonus pay for amazing work on #OSS                                   00010000082
622231380104724685848443042320000000000#384121775164# Zoey Davis              1121042880000083
705Tigershadow bonus pay for amazing work on #OSS                                  00010000083
622231380104365467374224237760000000000#048084222752# Emma Johnson            1121042880000084
705Pantherdenim bonus pay for amazing work on #OSS                                 00010000084
622231380104863715355255530080000000000#553024515634# Emma Thompson           1121042880000085
705Footcurly bonus pay for amazing work on #OSS                                    00010000085
622231380104643277634664758530000000000#640382852837# Emma Robinson           1121042880000086
705Razorash bonus pay for amazing work on #OSS                                     00010000086
622231380104773387000582566660000000000#410187050565# Madison Martinez        1121042880000087
705Iguanarogue bonus pay for amazing work on #OSS                                  00010000087
622231380104032828287057410660000000000#556315808128# Ella Robinson           1121042880000088
705Dolphintabby bonus pay for amazing work on #OSS                                 00010000088
622231380104180650417752015550000000000#848507480520# Ella Miller             1121042880000089
705Flasheralder bonus pay for amazing work on #OSS                                 00010000089
622231380104772423680170080830000000000#604387565485# David Martinez          1121042880000090
705Panthershell bonus pay for amazing work on #OSS                                 00010000090
622231380104237873318882601530000000000#318360665122# Noah Jones              1121042880000091
705Skinnernight bonus pay for amazing work on #OSS                                 00010000091
622231380104447218335388455210000000000#553227504427# Joshua Robinson         1121042880000092
705Swooporchid bonus pay for amazing work on #OSS                                  00010000092
622231380104406560634546051170000000000#544631448571# Matthew Taylor          1121042880000093
705Razorcopper bonus pay for amazing work on #OSS                                  00010000093
622231380104200175630436705380000000000#452011886286# Sofia Jackson           1121042880000094
705Spritepewter bonus pay for amazing work on #OSS                                 00010000094
622231380104677537558083401670000000000#377380867224# Joshua Davis            1121042880000095
705Ninjacandle bonus pay for amazing work on #OSS                                  00010000095
622231380104327410876233045410000000000#432815580551# Abigail Wilson          1121042880000096
705Wolfslash bonus pay for amazing work on #OSS                                    00010000096
622231380104248616400657543700000000000#108615816115# Benjamin Miller         1121042880000097
705Neckbronze bonus pay for amazing work on #OSS                                   00010000097
622231380104028054634647687880000000000#077306324778# Chloe Brown             1121042880000098
705Hidejuniper bonus pay for amazing work on #OSS                                  00010000098
622231380104838431538034844220000000000#477820157718# Ella White              1121042880000099
705Killerscratch bonus pay for amazing work on #OSS                                00010000099
622231380104781416240563057740000000000#254202842643# Daniel Anderson         1121042880000100
705Scribemoor bonus pay for amazing work on #OSS                                   00010000100
622231380104616666277140873420000000000#422731650330# Mia Moore               1121042880000101
705Wolfcoral bonus pay for amazing work on #OSS                                    00010000101
622231380104815787688070740580000000000#246828858657# Charlotte Anderson      1121042880000102
705Pantherflicker bonus pay for amazing work on #OSS                               00010000102
622231380104556511414663454670000000000#548280434021# Elizabeth Wilson        1121042880000103
705Snappermalachite bonus pay for amazing work on #OSS                             00010000103
622231380104111812417867512110000000000#183132428628# Ella Thomas             1121042880000104
705Slavenickel bonus pay for amazing work on #OSS                                  00010000104
622231380104721884762818418150000000000#571437057644# Aubrey Brown            1121042880000105
705Tonguecrocus bonus pay for amazing work on #OSS                                 00010000105
622231380104813071670483025830000000000#142166444118# Joseph Moore            1121042880000106
705Huggerjasper bonus pay for amazing work on #OSS                                 00010000106
622231380104302451547866675310000000000#672501111665# Michael Martinez        1121042880000107
705Paladinbrave bonus pay for amazing work on #OSS                                 00010000107
622231380104262358674463406740000000000#241353874054# Ella Martinez           1121042880000108
705Tailgrave bonus pay for amazing work on #OSS                                    00010000108
622231380104330862706515023210000000000#885428610213# Matthew Wilson          1121042880000109
705Mustangstump bonus pay for amazing work on #OSS                                 00010000109
622231380104635553428671612640000000000#418173201824# Joseph Garcia           1121042880000110
705Friendkeen bonus pay for amazing work on #OSS                                   00010000110
622231380104352766535458257610000000000#177752667332# Andrew Anderson         1121042880000111
705Diverquill bonus pay for amazing work on #OSS                                   00010000111
622231380104862050267480636370000000000#003740858511# Ella Johnson            1121042880000112
705Gamblerglen bonus pay for amazing work on #OSS                                  00010000112
622231380104043488261474823460000000000#700641673188# Ella Martinez           1121042880000113
705Hyenavolcano bonus pay for amazing work on #OSS                                 00010000113
622231380104473250856505133210000000000#325327872465# Daniel Harris           1121042880000114
705Grinstone bonus pay for amazing work on #OSS                                    00010000114
622231380104880201317746331410000000000#356753584554# Aiden Miller            1121042880000115
705Musepuzzle bonus pay for amazing work on #OSS                                   00010000115
622231380104880362686358863750000000000#415300648720# Ella Smith              1121042880000116
705Knifecold bonus pay for amazing work on #OSS                                    00010000116
622231380104732455365304015070000000000#540876461503# Emily Taylor            1121042880000117
705Chopperspeckle bonus pay for amazing work on #OSS                               00010000117
622231380104157856717037061480000000000#662778131575# Abigail Robinson        1121042880000118
705Hairnavy bonus pay for amazing work on #OSS                                     00010000118
622231380104273278163542306580000000000#415546488253# Ella Moore              1121042880000119
705Eaternimble bonus pay for amazing work on #OSS                                  00010000119
622231380104535042056653807240000000000#575285857847# David Harris            1121042880000120
705Dragonrift bonus pay for amazing work on #OSS                                   00010000120
622231380104520555518076073310000000000#172478587852# Mason Anderson          1121042880000121
705Saverneon bonus pay for amazing work on #OSS                                    00010000121
622231380104586063584526562740000000000#488858618266# William Jackson         1121042880000122
705Ridercloud bonus pay for amazing work on #OSS                                   00010000122
622231380104563234426058767840000000000#625817818702# Olivia Taylor           1121042880000123
705Geckoquick bonus pay for amazing work on #OSS                                   00010000123
622231380104703120886172450630000000000#313500367383# Emily Davis             1121042880000124
705Mousedune bonus pay for amazing work on #OSS                                    00010000124
622231380104848271812543213080000000000#055173644727# Andrew Robinson         1121042880000125
705Tonguepeach bonus pay for amazing work on #OSS                                  00010000125
622231380104774036048470674730000000000#481500021868# Daniel Martin           1121042880000126
705Riderobsidian bonus pay for amazing work on #OSS                                00010000126
622231380104646478411707453300000000000#588402806880# Mia Wilson              1121042880000127
705Hyenakiwi bonus pay for amazing work on #OSS                                    00010000127
622231380104608070662380013800000000000#260177172520# Andrew Brown            1121042880000128
705Glazersponge bonus pay for amazing work on #OSS                                 00010000128
622231380104227433551086316340000000000#663566164100# Madison Thomas          1121042880000129
705Ninjaripple bonus pay for amazing work on #OSS                                  00010000129
622231380104677132531243737700000000000#818564847070# Elizabeth Jackson       1121042880000130
705Razorpuzzle bonus pay for amazing work on #OSS                                  00010000130
622231380104731223056020188840000000000#700345333402# Benjamin Martinez       1121042880000131
705Monkeyforest bonus pay for amazing work on #OSS                                 00010000131
622231380104572422155302575330000000000#748054376413# Mia Harris              1121042880000132
705Unicornbitter bonus pay for amazing work on #OSS                                00010000132
622231380104140015662861100500000000000#505023528417# Emma Robinson           1121042880000133
705Minnowiridescent bonus pay for amazing work on #OSS                             00010000133
622231380104143820757667276340000000000#128842365240# Jacob Harris            1121042880000134
705Chesttitanium bonus pay for amazing work on #OSS                                00010000134
622231380104170051034070727340000000000#714743368874# Avery Anderson          1121042880000135
705Snarlballistic bonus pay for amazing work on #OSS                               00010000135
622231380104521125265757261380000000000#631360706380# Olivia Martinez         1121042880000136
705Friendlie bonus pay for amazing work on #OSS                                    00010000136
622231380104450707434158270810000000000#346821015738# James Garcia            1121042880000137
705Toeplatinum bonus pay for amazing work on #OSS                                  00010000137
622231380104452537388385355460000000000#178806683665# Benjamin Jackson        1121042880000138
705Chopperlunar bonus pay for amazing work on #OSS                                 00010000138
622231380104103581227226738550000000000#575857171307# Joseph Thomas           1121042880000139
705Knightsulpher bonus pay for amazing work on #OSS                                00010000139
622231380104754382242761014780000000000#382144728403# Olivia Miller           1121042880000140
705Lanternshine bonus pay for amazing work on #OSS                                 00010000140
622231380104602416804446216570000000000#366115825618# Jacob Harris            1121042880000141
705Rovereast bonus pay for amazing work on #OSS                                    00010000141
622231380104520583621372303470000000000#865061285571# Sophia Thompson         1121042880000142
705Singerobsidian bonus pay for amazing work on #OSS                               00010000142
622231380104836546250635085620000000000#121157610300# Noah Williams           1121042880000143
705Shiftmotley bonus pay for amazing work on #OSS                                  00010000143
622231380104216207517564714450000000000#775552314282# David Harris            1121042880000144
705Scribewhite bonus pay for amazing work on #OSS                                  00010000144
622231380104761808516051567680000000000#343335754260# Jayden Robinson         1121042880000145
705Ribplume bonus pay for amazing work on #OSS                                     00010000145
622231380104723816156524172380000000000#552432072044# Mia Williams            1121042880000146
705Ottereast bonus pay for amazing work on #OSS                                    00010000146
622231380104726161240473160320000000000#135618500552# Joseph Jones            1121042880000147
705Sentrypool bonus pay for amazing work on #OSS                                   00010000147
622231380104173862325188816730000000000#455316313133# Benjamin Jones          1121042880000148
705Lionlizard bonus pay for amazing work on #OSS                                   00010000148
622231380104888582303223730370000000000#733678333853# Natalie Wilson          1121042880000149
705Marefoil bonus pay for amazing work on #OSS                                     00010000149
622231380104140786684367488420000000000#407104383413# Alexander Anderson      1121042880000150
705Pumasprout bonus pay for amazing work on #OSS                                   00010000150
622231380104416232318657884860000000000#378308216608# Andrew Brown            1121042880000151
705Witchebony bonus pay for amazing work on #OSS                                   00010000151
622231380104467262241407308570000000000#124782618117# Sophia Robinson         1121042880000152
705Neckpeppermint bonus pay for amazing work on #OSS                               00010000152
622231380104211260848262780270000000000#016870473410# Anthony Harris          1121042880000153
705Pigpineapple bonus pay for amazing work on #OSS                                 00010000153
622231380104017512571344674460000000000#160305376061# Jacob Thomas            1121042880000154
705Razornavy bonus pay for amazing work on #OSS                                    00010000154
622231380104236623826187521600000000000#205700735071# Natalie Martin          1121042880000155
705Lionlace bonus pay for amazing work on #OSS                                     00010000155
622231380104038077628584047000000000000#503763521000# Lily Johnson            1121042880000156
705Sentryequinox bonus pay for amazing work on #OSS                                00010000156
622231380104303557252647471200000000000#771617255176# Madison Anderson        1121042880000157
705Seekerebony bonus pay for amazing work on #OSS                                  00010000157
622231380104003425752278614550000000000#534064178816# Joseph Martin           1121042880000158
705Scorpionstitch bonus pay for amazing work on #OSS                               00010000158
622231380104223813567186278520000000000#611350542681# Jacob Harris            1121042880000159
705Mistressmaze bonus pay for amazing work on #OSS                                 00010000159
622231380104311245888022387280000000000#753510466733# David Robinson          1121042880000160
705Ducksulpher bonus pay for amazing work on #OSS                                  00010000160
622231380104010857580114316770000000000#405653867005# Aubrey Thompson         1121042880000161
705Roverstellar bonus pay for amazing work on #OSS                                 00010000161
622231380104201405771778006810000000000#720743238576# Isabella Martin         1121042880000162
705Stagsilent bonus pay for amazing work on #OSS                                   00010000162
622231380104188556646726263260000000000#607870415575# Joseph Moore            1121042880000163
705Guardianripple bonus pay for amazing work on #OSS                               00010000163
622231380104222833647207121530000000000#683315642456# David Brown             1121042880000164
705Thumbjelly bonus pay for amazing work on #OSS                                   00010000164
622231380104318632156553441880000000000#545358861566# Michael Moore           1121042880000165
705Masterjewel bonus pay for amazing work on #OSS                                  00010000165
622231380104882240037334336010000000000#161402776722# Madison Robinson        1121042880000166
705Crystalscythe bonus pay for amazing work on #OSS                                00010000166
622231380104208863718768152100000000000#322787366717# Alexander Jones         1121042880000167
705Sagelunar bonus pay for amazing work on #OSS                                    00010000167
622231380104523843463528024210000000000#131026778602# David Thompson          1121042880000168
705Lightningboulder bonus pay for amazing work on #OSS                             00010000168
622231380104702037280222836120000000000#356778374181# Charlotte White         1121042880000169
705Bellfreckle bonus pay for amazing work on #OSS                                  00010000169
622231380104613443762772541800000000000#031806310281# William Martinez        1121042880000170
705Takernickel bonus pay for amazing work on #OSS                                  00010000170
622231380104306671627342643520000000000#664844684085# William Davis           1121042880000171
705Warriortitanium bonus pay for amazing work on #OSS                              00010000171
622231380104711634032388153630000000000#058736723374# James Robinson          1121042880000172
705Boltmeadow bonus pay for amazing work on #OSS                                   00010000172
622231380104643738567144675680000000000#283688243536# Isabella Thomas         1121042880000173
705Soarercandle bonus pay for amazing work on #OSS                                 00010000173
622231380104513128564251888820000000000#582144586663# David Garcia            1121042880000174
705Moosemeadow bonus pay for amazing work on #OSS                                  00010000174
622231380104451220014444308230000000000#536125365214# Michael Davis           1121042880000175
705Princestump bonus pay for amazing work on #OSS                                  00010000175
622231380104374788531765411870000000000#852532734317# William Harris          1121042880000176
705Scourgegeode bonus pay for amazing work on #OSS                                 00010000176
622231380104708504345214113440000000000#152212026846# Abigail Johnson         1121042880000177
705Tailbald bonus pay for amazing work on #OSS                                     00010000177
622231380104466448232677422760000000000#353626737536# Isabella Thomas         1121042880000178
705Koalaplaid bonus pay for amazing work on #OSS                                   00010000178
622231380104205314765176321150000000000#520386811180# Emma Miller             1121042880000179
705Weedfoam bonus pay for amazing work on #OSS                                     00010000179
622231380104181286733277726170000000000#560053126670# Elizabeth Taylor        1121042880000180
705Kangarooflax bonus pay for amazing work on #OSS                                 00010000180
622231380104737120022302746610000000000#503430308837# Joshua Robinson         1121042880000181
705Speakerspark bonus pay for amazing work on #OSS                                 00010000181
622231380104213826501402546040000000000#576156514234# Isabella Smith          1121042880000182
705Pumafrill bonus pay for amazing work on #OSS                                    00010000182
622231380104121663586283331210000000000#713365557732# Elijah Garcia           1121042880000183
705Healerlapis bonus pay for amazing work on #OSS                                  00010000183
622231380104267002110541403650000000000#700715153453# Madison Thompson        1121042880000184
705Antlerorange bonus pay for amazing work on #OSS                                 00010000184
622231380104502885507642710650000000000#143263348376# Mason Anderson          1121042880000185
705Chattercyan bonus pay for amazing work on #OSS                                  00010000185
622231380104467802000873423770000000000#008537661577# Olivia Miller           1121042880000186
705Skinnersolstice bonus pay for amazing work on #OSS                              00010000186
622231380104432866416106435880000000000#553606246275# Matthew Smith           1121042880000187
705Slothshell bonus pay for amazing work on #OSS                                   00010000187
622231380104224122631246127180000000000#530780605840# Jacob Martin            1121042880000188
705Dartquark bonus pay for amazing work on #OSS                                    00010000188
622231380104022724453785680500000000000#818311442760# Ava Wilson              1121042880000189
705Musepepper bonus pay for amazing work on #OSS                                   00010000189
622231380104007432334372718240000000000#111880623334# David Davis             1121042880000190
705Scourgewarp bonus pay for amazing work on #OSS                                  00010000190
622231380104255422560327451810000000000#128778478075# Emily Miller            1121042880000191
705Pegasusholly bonus pay for amazing work on #OSS                                 00010000191
622231380104444262800874128260000000000#435575451581# Benjamin White          1121042880000192
705Seedshort bonus pay for amazing work on #OSS                                    00010000192
622231380104306621264424046480000000000#851341810333# Chloe White             1121042880000193
705Facesand bonus pay for amazing work on #OSS                                     00010000193
622231380104017641381278220620000000000#322350506511# Jacob Wilson            1121042880000194
705Carptar bonus pay for amazing work on #OSS                                      00010000194
622231380104828453707354512610000000000#712087064466# Aiden Thompson          1121042880000195
705Cloakdust bonus pay for amazing work on #OSS                                    00010000195
622231380104640714775264557580000000000#026442316857# Alexander Wilson        1121042880000196
705Kickerroot bonus pay for amazing work on #OSS                                   00010000196
622231380104287525862646473220000000000#187800113433# Abigail Brown           1121042880000197
705Gamblersapphire bonus pay for amazing work on #OSS                              00010000197
622231380104145356385651111080000000000#372126513288# James Robinson          1121042880000198
705Throatstellar bonus pay for amazing work on #OSS                                00010000198
622231380104650147576352020680000000000#203143411840# David Smith             1121042880000199
705Songwhip bonus pay for amazing work on #OSS                                     00010000199
622231380104517266055667747100000000000#532705831215# Jacob Smith             1121042880000200
705Knifecyan bonus pay for amazing work on #OSS                                    00010000200
622231380104506181024470465880000000000#501566308372# Sophia Thompson         1121042880000201
705Batstellar bonus pay for amazing work on #OSS                                   00010000201
622231380104177141522270333120000000000#336573580721# William Davis           1121042880000202
705Kickermagenta bonus pay for amazing work on #OSS                                00010000202
622231380104818050833486318720000000000#245183407085# Lily Moore              1121042880000203
705Bisongranite bonus pay for amazing work on #OSS                                 00010000203
622231380104240721626143051180000000000#370785170707# Olivia White            1121042880000204
705Oriolewheat bonus pay for amazing work on #OSS                                  00010000204
622231380104564641721316240070000000000#223045655614# Liam Johnson            1121042880000205
705Killerquark bonus pay for amazing work on #OSS                                  00010000205
622231380104322756004363772140000000000#735641680515# Alexander Moore         1121042880000206
705Spearpolar bonus pay for amazing work on #OSS                                   00010000206
622231380104813724800028853700000000000#144013178711# Emma Moore              1121042880000207
705Capcake bonus pay for amazing work on #OSS                                      00010000207
622231380104233346670471413850000000000#708616641340# Jayden Wilson           1121042880000208
705Scarlime bonus pay for amazing work on #OSS                                     00010000208
622231380104180168460881583620000000000#214362382201# Isabella Martin         1121042880000209
705Arrowfreckle bonus pay for amazing work on #OSS                                 00010000209
622231380104241854825184262650000000000#181610408060# Noah Jackson            1121042880000210
705Thorndeep bonus pay for amazing work on #OSS                                    00010000210
622231380104744682836551166430000000000#257678430148# Noah Brown              1121042880000211
705Spikeebony bonus pay for amazing work on #OSS                                   00010000211
622231380104562778570020415210000000000#534033050511# Avery Smith             1121042880000212
705Howlerring bonus pay for amazing work on #OSS                                   00010000212
622231380104346142556053475640000000000#567133748704# Natalie Garcia          1121042880000213
705Slayerpattern bonus pay for amazing work on #OSS                                00010000213
622231380104733861108006321670000000000#156301230324# Matthew Moore           1121042880000214
705Ladyshade bonus pay for amazing work on #OSS                                    00010000214
622231380104413737404688157620000000000#773774518262# Benjamin Thomas         1121042880000215
705Scalesleet bonus pay for amazing work on #OSS                                   00010000215
622231380104500337250738883610000000000#223780473433# Anthony Martin          1121042880000216
705Dogpurple bonus pay for amazing work on #OSS                                    00010000216
622231380104227001305134661610000000000#871548786556# Emily Davis             1121042880000217
705Dolphinfree bonus pay for amazing work on #OSS                                  00010000217
622231380104842050265531888600000000000#864545464676# Sofia Harris            1121042880000218
705Thornbronze bonus pay for amazing work on #OSS                                  00010000218
622231380104385885467070184460000000000#156565801203# Avery Miller            1121042880000219
705Scowlchecker bonus pay for amazing work on #OSS                                 00010000219
622231380104080122064366832550000000000#781133214584# Matthew Moore           1121042880000220
705Ravenebony bonus pay for amazing work on #OSS                                   00010000220
622231380104783840051623576260000000000#727560844415# Chloe Miller            1121042880000221
705Bugwood bonus pay for amazing work on #OSS                                      00010000221
622231380104556240147416003530000000000#701024500214# Isabella Taylor         1121042880000222
705Terrierjet bonus pay for amazing work on #OSS                                   00010000222
622231380104114244563572143450000000000#262414850072# Mia Jones               1121042880000223
705Elkivory bonus pay for amazing work on #OSS                                     00010000223
622231380104203814188636364580000000000#488804038558# Isabella Garcia         1121042880000224
705Razorchip bonus pay for amazing work on #OSS                                    00010000224
622231380104173067236558120540000000000#885415428408# Chloe Taylor            1121042880000225
705Drifteralpine bonus pay for amazing work on #OSS                                00010000225
622231380104424847645616678840000000000#077275584852# Charlotte Garcia        1121042880000226
705Pythonhate bonus pay for amazing work on #OSS                                   00010000226
622231380104751630513711558340000000000#651804715581# David Johnson           1121042880000227
705Shiftmuck bonus pay for amazing work on #OSS                                    00010000227
622231380104624136176646687210000000000#853424372686# Matthew Miller          1121042880000228
705Crystaldark bonus pay for amazing work on #OSS                                  00010000228
622231380104131142423368662050000000000#048561524414# Benjamin Martinez       1121042880000229
705Biterdust bonus pay for amazing work on #OSS                                    00010000229
622231380104776232126766583700000000000#514215168342# Ethan Martinez          1121042880000230
705Stingroad bonus pay for amazing work on #OSS                                    00010000230
622231380104573344630480727050000000000#251073483687# James Miller            1121042880000231
705Raptorwax bonus pay for amazing work on #OSS                                    00010000231
622231380104325207134540774800000000000#081377471208# David Thomas            1121042880000232
705Questerswamp bonus pay for amazing work on #OSS                                 00010000232
622231380104377648576611034160000000000#304618855474# Noah Robinson           1121042880000233
705Boltrune bonus pay for amazing work on #OSS                                     00010000233
622231380104887027165768081420000000000#374830618735# Charlotte Robinson      1121042880000234
705Followerdiamond bonus pay for amazing work on #OSS                              00010000234
622231380104148662162860456480000000000#565727316641# Emily Thompson          1121042880000235
705Chanterround bonus pay for amazing work on #OSS                                 00010000235
622231380104566710402878242270000000000#080324653657# Michael Thompson        1121042880000236
705Rayflax bonus pay for amazing work on #OSS                                      00010000236
622231380104244042467880206450000000000#183688712366# Mason Thompson          1121042880000237
705Witchcyan bonus pay for amazing work on #OSS                                    00010000237
622231380104581136680257728500000000000#728668758532# Isabella Davis          1121042880000238
705Sharkwind bonus pay for amazing work on #OSS                                    00010000238
622231380104162478613550301040000000000#600012565582# Elijah Wilson           1121042880000239
705Shriekerlily bonus pay for amazing work on #OSS                                 00010000239
622231380104442170001374784530000000000#243301821212# Alexander White         1121042880000240
705Jesterpaper bonus pay for amazing work on #OSS                                  00010000240
622231380104571063846020461560000000000#164237633651# James Robinson          1121042880000241
705Carpetflax bonus pay for amazing work on #OSS                                   00010000241
622231380104335710041456135540000000000#040458522837# Chloe Robinson          1121042880000242
705Seedautumn bonus pay for amazing work on #OSS                                   00010000242
622231380104044287625557782150000000000#205377187351# Olivia Thompson         1121042880000243
705Gamblernimble bonus pay for amazing work on #OSS                                00010000243
622231380104337417544855575360000000000#838754548324# Natalie Thomas          1121042880000244
705Cloudtrail bonus pay for amazing work on #OSS                                   00010000244
622231380104055060665860852370000000000#428433474406# James Anderson          1121042880000245
705Hornetchatter bonus pay for amazing work on #OSS                                00010000245
622231380104726002057163645230000000000#654026632171# Joseph Thompson         1121042880000246
705Collarmetal bonus pay for amazing work on #OSS                                  00010000246
622231380104347125208268753880000000000#115445213132# Ella Thompson           1121042880000247
705Snaprazor bonus pay for amazing work on #OSS                                    00010000247
622231380104774404387835145820000000000#036715308427# Sophia Thompson         1121042880000248
705Crownfast bonus pay for amazing work on #OSS                                    00010000248
622231380104474708704804243640000000000#806308154057# Ella Anderson           1121042880000249
705Divephase bonus pay for amazing work on #OSS                                    00010000249
622231380104508066286253042210000000000#346403520444# Abigail Johnson         1121042880000250
705Bowbone bonus pay for amazing work on #OSS                                      00010000250
622231380104862502118577204240000000000#333068111402# Jayden Miller           1121042880000251
705Antelopetree bonus pay for amazing work on #OSS                                 00010000251
622231380104350458120502327330000000000#181462726253# Chloe Williams          1121042880000252
705Divernotch bonus pay for amazing work on #OSS                                   00010000252
622231380104203587644861850280000000000#513466344770# Emily Anderson          1121042880000253
705Scorpiontyphoon bonus pay for amazing work on #OSS                              00010000253
622231380104476286585235403820000000000#343567758287# Madison Martin          1121042880000254
705Flyhorn bonus pay for amazing work on #OSS                                      00010000254
622231380104532135464402650630000000000#730877271212# Olivia Wilson           1121042880000255
705Spearsilent bonus pay for amazing work on #OSS                                  00010000255
622231380104674068223683074700000000000#884627136464# Aiden Harris            1121042880000256
705Chopperbead bonus pay for amazing work on #OSS                                  00010000256
622231380104534755477882063860000000000#173682176001# Elijah Williams         1121042880000257
705Graspperidot bonus pay for amazing work on #OSS                                 00010000257
622231380104677470158714305520000000000#487404162825# David Thomas            1121042880000258
705Wingbone bonus pay for amazing work on #OSS                                     00010000258
622231380104338772336041027550000000000#546882025165# Anthony Robinson        1121042880000259
705Elkwarp bonus pay for amazing work on #OSS                                      00010000259
622231380104810711706251454240000000000#842711546855# Joseph Brown            1121042880000260
705Keeperjade bonus pay for amazing work on #OSS                                   00010000260
622231380104043831310852753870000000000#336516151420# Aiden Thomas            1121042880000261
705Footblossom bonus pay for amazing work on #OSS                                  00010000261
622231380104784125800365275710000000000#446812276533# Emily Martinez          1121042880000262
705Boarglass bonus pay for amazing work on #OSS                                    00010000262
622231380104032100746412777880000000000#481018147288# Emily Martin            1121042880000263
705Warriormalachite bonus pay for amazing work on #OSS                             00010000263
622231380104106474165548814770000000000#670655706515# Madison Anderson        1121042880000264
705Grinslash bonus pay for amazing work on #OSS                                    00010000264
622231380104215805713732372130000000000#382532257318# Sophia Thomas           1121042880000265
705Pawbevel bonus pay for amazing work on #OSS                                     00010000265
622231380104574424552183008080000000000#314216157780# Liam Harris             1121042880000266
705Pixiesolar bonus pay for amazing work on #OSS                                   00010000266
622231380104268231168800571320000000000#457253345556# Jacob Miller            1121042880000267
705Antcosmic bonus pay for amazing work on #OSS                                    00010000267
622231380104337141884714720140000000000#220264400868# Avery Martinez          1121042880000268
705Pumastone bonus pay for amazing work on #OSS                                    00010000268
622231380104775855245285433640000000000#012754133056# Mason Taylor            1121042880000269
705Scarerred bonus pay for amazing work on #OSS                                    00010000269
622231380104363548041780162120000000000#743473203414# Noah Wilson             1121042880000270
705Bellyglen bonus pay for amazing work on #OSS                                    00010000270
622231380104543226308261665520000000000#848657202130# Ethan Davis             1121042880000271
705Raccoonsand bonus pay for amazing work on #OSS                                  00010000271
622231380104203733832048308280000000000#664177387705# Mason Martin            1121042880000272
705Deathperidot bonus pay for amazing work on #OSS                                 00010000272
622231380104150644026731781870000000000#337762142574# Michael Harris          1121042880000273
705Bunnyglitter bonus pay for amazing work on #OSS                                 00010000273
622231380104626507647607325020000000000#811008616653# Sophia Smith            1121042880000274
705Heronpie bonus pay for amazing work on #OSS                                     00010000274
622231380104114088284476757160000000000#767688412286# Ethan Martin            1121042880000275
705Coyoteheather bonus pay for amazing work on #OSS                                00010000275
622231380104151542625681471670000000000#752266177844# Charlotte Miller        1121042880000276
705Leglight bonus pay for amazing work on #OSS                                     00010000276
622231380104738418446400251600000000000#708873017734# Matthew Johnson         1121042880000277
705Chargerapricot bonus pay for amazing work on #OSS                               00010000277
622231380104267251560524632010000000000#248183163580# Mia Thompson            1121042880000278
705Boaprism bonus pay for amazing work on #OSS                                     00010000278
622231380104028226221424733380000000000#255772668216# Anthony Miller          1121042880000279
705Beakgarnet bonus pay for amazing work on #OSS                                   00010000279
622231380104371422153306400070000000000#310256141324# Andrew Davis            1121042880000280
705Stonecloud bonus pay for amazing work on #OSS                                   00010000280
622231380104265146535134842410000000000#633746161067# Andrew Davis            1121042880000281
705Touchmud bonus pay for amazing work on #OSS                                     00010000281
622231380104371011226113608300000000000#263534511141# Matthew Thompson        1121042880000282
705Jawrhinestone bonus pay for amazing work on #OSS                                00010000282
622231380104325565574676702150000000000#200303070874# William Martin          1121042880000283
705Bugsatin bonus pay for amazing work on #OSS                                     00010000283
622231380104567154442158628760000000000#530741067130# Isabella Taylor         1121042880000284
705Speakertree bonus pay for amazing work on #OSS                                  00010000284
622231380104800108853600103530000000000#013482483703# Emma Miller             1121042880000285
705Shirtvolcano bonus pay for amazing work on #OSS                                 00010000285
622231380104516271868084565580000000000#715666606622# Avery Johnson           1121042880000286
705Stalkercrack bonus pay for amazing work on #OSS                                 00010000286
622231380104201456242681202270000000000#842560128307# Zoey Jackson            1121042880000287
705Whalemint bonus pay for amazing work on #OSS                                    00010000287
622231380104483284208668725000000000000#580758380530# Matthew Garcia          1121042880000288
705Thieffern bonus pay for amazing work on #OSS                                    00010000288
622231380104616141113384564100000000000#530801810076# Olivia Wilson           1121042880000289
705Piperstone bonus pay for amazing work on #OSS                                   00010000289
622231380104610866505348422170000000000#340781116203# Joshua Garcia           1121042880000290
705Paladinwood bonus pay for amazing work on #OSS                                  00010000290
622231380104817404143310363120000000000#520111618781# Avery Anderson          1121042880000291
705Throatiris bonus pay for amazing work on #OSS                                   00010000291
622231380104574422816662732330000000000#831028122260# Sophia Martinez         1121042880000292
705Skinnerluck bonus pay for amazing work on #OSS                                  00010000292
622231380104787822658416384730000000000#881673262555# Madison Thompson        1121042880000293
705Bisonshort bonus pay for amazing work on #OSS                                   00010000293
622231380104432635674515752610000000000#306424778078# Natalie Thompson        1121042880000294
705Playerwind bonus pay for amazing work on #OSS                                   00010000294
622231380104224083268466387000000000000#320002855685# Mia Jackson             1121042880000295
705Skullberyl bonus pay for amazing work on #OSS                                   00010000295
622231380104631635330315566670000000000#347132831007# Ava Brown               1121042880000296
705Catfuschia bonus pay for amazing work on #OSS                                   00010000296
622231380104310883512075416510000000000#514878562447# Lily Jackson            1121042880000297
705Shoulderdisco bonus pay for amazing work on #OSS                                00010000297
622231380104540160300121404440000000000#762156317482# Aiden Taylor            1121042880000298
705Guardianmoor bonus pay for amazing work on #OSS                                 00010000298
622231380104326801122720772200000000000#205232365123# Elizabeth Wilson        1121042880000299
705Musedeep bonus pay for amazing work on #OSS                                     00010000299
622231380104088100451117076830000000000#386312785538# Charlotte Martinez      1121042880000300
705Legendriver bonus pay for amazing work on #OSS                                  00010000300
622231380104282053638822815570000000000#311268502858# Anthony White           1121042880000301
705Fairybold bonus pay for amazing work on #OSS                                    00010000301
622231380104574335627776133450000000000#278213821178# Jacob Harris            1121042880000302
705Fishplume bonus pay for amazing work on #OSS                                    00010000302
622231380104167160688357075110000000000#186105672235# Joseph Thomas           1121042880000303
705Seekercherry bonus pay for amazing work on #OSS                                 00010000303
622231380104108630343040016200000000000#211575631357# Madison Miller          1121042880000304
705Dropspangle bonus pay for amazing work on #OSS                                  00010000304
622231380104121745822788717530000000000#227567032621# Andrew Anderson         1121042880000305
705Witcharrow bonus pay for amazing work on #OSS                                   00010000305
622231380104555106433535176350000000000#350126078887# Daniel Harris           1121042880000306
705Jesterprickle bonus pay for amazing work on #OSS                                00010000306
622231380104641145441530881120000000000#882402052867# Lily Martinez           1121042880000307
705Dutchessrattle bonus pay for amazing work on #OSS                               00010000307
622231380104231272745722828720000000000#861486365813# Noah Taylor             1121042880000308
705Butterflyivy bonus pay for amazing work on #OSS                                 00010000308
622231380104751551714241023350000000000#736362207646# Daniel Robinson         1121042880000309
705Sharkalpine bonus pay for amazing work on #OSS                                  00010000309
622231380104612873766215186880000000000#077851402822# Zoey Martin             1121042880000310
705Butterflyscarlet bonus pay for amazing work on #OSS                             00010000310
622231380104572023062778462780000000000#364378160723# Noah Jones              1121042880000311
705Kickercrack bonus pay for amazing work on #OSS                                  00010000311
622231380104512660538055670250000000000#404835752430# Sofia Taylor            1121042880000312
705Fanggreat bonus pay for amazing work on #OSS                                    00010000312
622231380104875542760215430210000000000#523262033752# James Williams          1121042880000313
705Bootpeppermint bonus pay for amazing work on #OSS                               00010000313
622231380104484541655573864810000000000#347500312637# Daniel Thomas           1121042880000314
705Houndspring bonus pay for amazing work on #OSS                                  00010000314
622231380104243086818603672110000000000#043446724345# Mia White               1121042880000315
705Baneorchid bonus pay for amazing work on #OSS                                   00010000315
622231380104017260245168706740000000000#741107330488# Elijah Davis            1121042880000316
705Toucandeep bonus pay for amazing work on #OSS                                   00010000316
622231380104180471252331022530000000000#417488348133# Elizabeth Johnson       1121042880000317
705Walkerhazel bonus pay for amazing work on #OSS                                  00010000317
622231380104261483087352018340000000000#567424688176# Alexander Johnson       1121042880000318
705Turnerhickory bonus pay for amazing work on #OSS                                00010000318
622231380104257151047572612170000000000#517684204425# Charlotte Taylor        1121042880000319
705Snagglefootwest bonus pay for amazing work on #OSS                              00010000319
622231380104215761745014132460000000000#203538204143# Chloe Thomas            1121042880000320
705Crowdaisy bonus pay for amazing work on #OSS                                    00010000320
622231380104156774142035005640000000000#517322472650# Joshua Harris           1121042880000321
705Snakedawn bonus pay for amazing work on #OSS                                    00010000321
622231380104518766526384181580000000000#241131114561# Abigail Williams        1121042880000322
705Spurhelix bonus pay for amazing work on #OSS                                    00010000322
622231380104636481221858025470000000000#660582110247# Mia Jackson             1121042880000323
705Playerbrown bonus pay for amazing work on #OSS                                  00010000323
622231380104286361852132231620000000000#178008141351# Elijah Miller           1121042880000324
705Stagwood bonus pay for amazing work on #OSS                                     00010000324
622231380104581060831530753630000000000#350411320172# Addison Johnson         1121042880000325
705Scorpionalpine bonus pay for amazing work on #OSS                               00010000325
622231380104533844258888565870000000000#781174188340# Benjamin Thompson       1121042880000326
705Shifttree bonus pay for amazing work on #OSS                                    00010000326
622231380104530606047267087540000000000#086678557411# Matthew Smith           1121042880000327
705Wolverinepuzzle bonus pay for amazing work on #OSS                              00010000327
622231380104740246864632456750000000000#373701515850# William Taylor          1121042880000328
705Knavesprinkle bonus pay for amazing work on #OSS                                00010000328
622231380104607143630756030650000000000#644716353705# Natalie Jackson         1121042880000329
705Sentrysolstice bonus pay for amazing work on #OSS                               00010000329
622231380104842752147043351440000000000#567165480175# Anthony Jackson         1121042880000330
705Buffalocomet bonus pay for amazing work on #OSS                                 00010000330
622231380104643275464421607780000000000#012862387474# Noah Davis              1121042880000331
705Boarperidot bonus pay for amazing work on #OSS                                  00010000331
622231380104117884366800447820000000000#580844625106# Mia White               1121042880000332
705Foxmad bonus pay for amazing work on #OSS                                       00010000332
622231380104665471804715352700000000000#060578511774# Olivia Moore            1121042880000333
705Cougarred bonus pay for amazing work on #OSS                                    00010000333
622231380104000461261470156600000000000#348873853852# Matthew White           1121042880000334
705Shieldband bonus pay for amazing work on #OSS                                   00010000334
622231380104758278701413077570000000000#848285430660# Sophia Williams         1121042880000335
705Stingergreen bonus pay for amazing work on #OSS                                 00010000335
622231380104040762006678551130000000000#510787775676# Liam White              1121042880000336
705Fisherscratch bonus pay for amazing work on #OSS                                00010000336
622231380104641255855426618350000000000#428035660578# Emma Jackson            1121042880000337
705Flywater bonus pay for amazing work on #OSS                                     00010000337
622231380104844683735481243720000000000#560838672803# Noah White              1121042880000338
705Legscharm bonus pay for amazing work on #OSS                                    00010000338
622231380104226723527446741800000000000#187480828632# Emma Martinez           1121042880000339
705Hyenadaffodil bonus pay for amazing work on #OSS                                00010000339
622231380104720530062640262430000000000#774522547331# Joshua Miller           1121042880000340
705Knightforest bonus pay for amazing work on #OSS                                 00010000340
622231380104700767627201534510000000000#018645544282# Natalie Harris          1121042880000341
705Braidshell bonus pay for amazing work on #OSS                                   00010000341
622231380104700027387162271680000000000#505514347444# Isabella Moore          1121042880000342
705Backnight bonus pay for amazing work on #OSS                                    00010000342
622231380104173606732315036040000000000#606664776303# Noah Robinson           1121042880000343
705Sentryflame bonus pay for amazing work on #OSS                                  00010000343
622231380104746865257731021020000000000#157210577814# Alexander Martinez      1121042880000344
705Birdbig bonus pay for amazing work on #OSS                                      00010000344
622231380104037834265577158630000000000#318213215321# Natalie Thomas          1121042880000345
705Chopperhate bonus pay for amazing work on #OSS                                  00010000345
622231380104105554660848733850000000000#611623538108# Sofia Garcia            1121042880000346
705Songgrove bonus pay for amazing work on #OSS                                    00010000346
622231380104013275753603131060000000000#822328313835# Mia Brown               1121042880000347
705Butterflyfair bonus pay for amazing work on #OSS                                00010000347
622231380104874505625238863240000000000#224202481023# Aiden White             1121042880000348
705Hawkbrass bonus pay for amazing work on #OSS                                    00010000348
622231380104734788855535378620000000000#571504340377# Joshua Robinson         1121042880000349
705Biterclear bonus pay for amazing work on #OSS                                   00010000349
622231380104684783003610660470000000000#577854725050# Zoey Wilson             1121042880000350
705Watcheralpine bonus pay for amazing work on #OSS                                00010000350
622231380104070171464245364170000000000#634037514858# Lily Garcia             1121042880000351
705Shiftnorth bonus pay for amazing work on #OSS                                   00010000351
622231380104086411623486545570000000000#802400716530# William Moore           1121042880000352
705Flameabalone bonus pay for amazing work on #OSS                                 00010000352
622231380104741212605845355470000000000#731112304117# Ava Martin              1121042880000353
705Apeiris bonus pay for amazing work on #OSS                                      00010000353
622231380104550234830006481220000000000#607803254786# Matthew Robinson        1121042880000354
705Mothagate bonus pay for amazing work on #OSS                                    00010000354
622231380104158314285424186360000000000#504046626426# Elijah Davis            1121042880000355
705Gargoylebrook bonus pay for amazing work on #OSS                                00010000355
622231380104673018086520717240000000000#410661631871# Natalie Martinez        1121042880000356
705Bowpaint bonus pay for amazing work on #OSS                                     00010000356
622231380104638215052283248210000000000#183643814007# Aiden Martin            1121042880000357
705Gorillajasper bonus pay for amazing work on #OSS                                00010000357
622231380104025056118334082400000000000#353024804252# Mason Wilson            1121042880000358
705Fairytundra bonus pay for amazing work on #OSS                                  00010000358
622231380104813326080452304730000000000#376040656757# Elizabeth Martin        1121042880000359
705Bisontin bonus pay for amazing work on #OSS                                     00010000359
622231380104142225273035374020000000000#707567268277# Abigail Wilson          1121042880000360
705Riderchatter bonus pay for amazing work on #OSS                                 00010000360
622231380104870818053114867440000000000#451040612802# Jacob Taylor            1121042880000361
705Hornetdandelion bonus pay for amazing work on #OSS                              00010000361
622231380104558743054742440850000000000#723453804137# Elizabeth Thomas        1121042880000362
705Snakegravel bonus pay for amazing work on #OSS                                  00010000362
622231380104814171641508132860000000000#281180581111# Charlotte Smith         1121042880000363
705Ripperhollow bonus pay for amazing work on #OSS                                 00010000363
622231380104507557145844640820000000000#102224881704# Alexander Williams      1121042880000364
705Minnowzircon bonus pay for amazing work on #OSS                                 00010000364
622231380104876135803460477830000000000#307462288162# David Taylor            1121042880000365
705Witchiron bonus pay for amazing work on #OSS                                    00010000365
622231380104371382844364564530000000000#677006570386# Ella Jones              1121042880000366
705Shriekervine bonus pay for amazing work on #OSS                                 00010000366
622231380104838415004730468260000000000#884538503413# Ella Martinez           1121042880000367
705Yakglaze bonus pay for amazing work on #OSS                                     00010000367
622231380104077428805264086870000000000#460563557815# Liam Brown              1121042880000368
705Stingerred bonus pay for amazing work on #OSS                                   00010000368
622231380104483556208542061650000000000#567201652344# Benjamin Taylor         1121042880000369
705Speardour bonus pay for amazing work on #OSS                                    00010000369
622231380104101074685772062080000000000#472007153341# Noah Miller             1121042880000370
705Legendtree bonus pay for amazing work on #OSS                                   00010000370
622231380104268508366322276630000000000#408137848676# Sofia Davis             1121042880000371
705Knaveagate bonus pay for amazing work on #OSS                                   00010000371
622231380104133705008860227770000000000#344018537488# Alexander Garcia        1121042880000372
705Slicerapple bonus pay for amazing work on #OSS                                  00010000372
622231380104637510110541625680000000000#657124674265# Olivia Williams         1121042880000373
705Raptorwool bonus pay for amazing work on #OSS                                   00010000373
622231380104824061163530301220000000000#563658562330# William Johnson         1121042880000374
705Swordchecker bonus pay for amazing work on #OSS                                 00010000374
622231380104851224778504453270000000000#043702287643# Zoey Garcia             1121042880000375
705Spiderwax bonus pay for amazing work on #OSS                                    00010000375
622231380104350015384310442280000000000#072235880571# Elijah Thomas           1121042880000376
705Neckiron bonus pay for amazing work on #OSS                                     00010000376
622231380104163472774210245460000000000#617653587611# Natalie Moore           1121042880000377
705Legendaquamarine bonus pay for amazing work on #OSS                             00010000377
622231380104665132012743858280000000000#565372736652# Alexander Smith         1121042880000378
705Salmonviolet bonus pay for amazing work on #OSS                                 00010000378
622231380104742268803776843670000000000#727243701316# William Jones           1121042880000379
705Hidepepper bonus pay for amazing work on #OSS                                   00010000379
622231380104758408325666685610000000000#232312120124# Ella Taylor             1121042880000380
705Whipdew bonus pay for amazing work on #OSS                                      00010000380
622231380104276751111672770080000000000#620881023267# Emily White             1121042880000381
705Lizardquiver bonus pay for amazing work on #OSS                                 00010000381
622231380104600046405037042240000000000#710844165404# Daniel Jones            1121042880000382
705Jayspark bonus pay for amazing work on #OSS                                     00010000382
622231380104546336760611213840000000000#266082635822# Noah Davis              1121042880000383
705Tailjade bonus pay for amazing work on #OSS                                     00010000383
622231380104771622625230527070000000000#402156104177# William White           1121042880000384
705Batgeode bonus pay for amazing work on #OSS                                     00010000384
622231380104232551067233555770000000000#106222506612# Chloe Moore             1121042880000385
705Stagpattern bonus pay for amazing work on #OSS                                  00010000385
622231380104618418733582072500000000000#578021215877# Mason Smith             1121042880000386
705Shirtstitch bonus pay for amazing work on #OSS                                  00010000386
622231380104151382156103152220000000000#101216421636# Abigail Taylor          1121042880000387
705Princeplume bonus pay for amazing work on #OSS                                  00010000387
622231380104656023850775602450000000000#432257753061# Mason Davis             1121042880000388
705Catcherpsychadelic bonus pay for amazing work on #OSS                           00010000388
622231380104307370265557636250000000000#633382748187# Matthew Robinson        1121042880000389
705Scarergreat bonus pay for amazing work on #OSS                                  00010000389
622231380104136744643543432010000000000#738582288135# Lily Taylor             1121042880000390
705Tradercoal bonus pay for amazing work on #OSS                                   00010000390
622231380104155138237800204230000000000#654561176256# Joseph Thompson         1121042880000391
705Carpetfossil bonus pay for amazing work on #OSS                                 00010000391
622231380104450067603441700520000000000#635172810766# Elijah Jones            1121042880000392
705Snarlregal bonus pay for amazing work on #OSS                                   00010000392
622231380104413067244020575530000000000#553823416074# Emma Wilson             1121042880000393
705Sparrowperidot bonus pay for amazing work on #OSS                               00010000393
622231380104667201662346454150000000000#862572643687# Jayden Robinson         1121042880000394
705Ferretfluff bonus pay for amazing work on #OSS                                  00010000394
622231380104436318213727406320000000000#644803540677# William Garcia          1121042880000395
705Dukeriver bonus pay for amazing work on #OSS                                    00010000395
622231380104323617118604155680000000000#243844458313# Charlotte Taylor        1121042880000396
705Snapshore bonus pay for amazing work on #OSS                                    00010000396
622231380104861818243701212070000000000#468557706408# Madison Davis           1121042880000397
705Wingfreckle bonus pay for amazing work on #OSS                                  00010000397
622231380104126811868068867320000000000#463726202780# Aiden White             1121042880000398
705Shouldersulpher bonus pay for amazing work on #OSS                              00010000398
622231380104668501848658688370000000000#824235225744# Michael Johnson         1121042880000399
705Armlegend bonus pay for amazing work on #OSS                                    00010000399
622231380104272264284680158600000000000#272064602056# Emily Taylor            1121042880000400
705Neckbubble bonus pay for amazing work on #OSS                                   00010000400
622231380104712437025180652630000000000#301503387714# Matthew Jones           1121042880000401
705Swallowsapphire bonus pay for amazing work on #OSS                              00010000401
622231380104038662633845617080000000000#324733132071# Isabella Robinson       1121042880000402
705Wizardswift bonus pay for amazing work on #OSS                                  00010000402
622231380104070535253638322030000000000#466778746881# Andrew Thompson         1121042880000403
705Rayprong bonus pay for amazing work on #OSS                                     00010000403
622231380104608841147414878320000000000#430064875456# Elijah Smith            1121042880000404
705Ridgedestiny bonus pay for amazing work on #OSS                                 00010000404
622231380104155063616170313580000000000#025323648774# Madison White           1121042880000405
705Unicornbitter bonus pay for amazing work on #OSS                                00010000405
622231380104445251407888554430000000000#847626170733# Anthony Jones           1121042880000406
705Songskitter bonus pay for amazing work on #OSS                                  00010000406
622231380104726174133534026840000000000#138345263045# David Harris            1121042880000407
705Wizardpear bonus pay for amazing work on #OSS                                   00010000407
622231380104604887228530340000000000000#311784062245# Ethan Jones             1121042880000408
705Spurfree bonus pay for amazing work on #OSS                                     00010000408
622231380104510655008182050180000000000#675404865841# Emma Jones              1121042880000409
705Scribesilent bonus pay for amazing work on #OSS                                 00010000409
622231380104715116380837015570000000000#854160018852# Emily Jones             1121042880000410
705Wizardpower bonus pay for amazing work on #OSS                                  00010000410
622231380104108632880873257440000000000#162680146483# Jayden Miller           1121042880000411
705Frillmorning bonus pay for amazing work on #OSS                                 00010000411
622231380104032767662646107270000000000#013472071036# Zoey Thomas             1121042880000412
705Griffinbrook bonus pay for amazing work on #OSS                                 00010000412
622231380104474265807000687070000000000#717525452554# Addison Harris          1121042880000413
705Goosenickel bonus pay for amazing work on #OSS                                  00010000413
622231380104341718586178014300000000000#848270342356# Elijah White            1121042880000414
705Paladinvivid bonus pay for amazing work on #OSS                                 00010000414
622231380104110514007656216860000000000#766052272851# Mia Jackson             1121042880000415
705Bellyfork bonus pay for amazing work on #OSS                                    00010000415
622231380104177248071815651110000000000#627234413883# Jayden White            1121042880000416
705Geckohazel bonus pay for amazing work on #OSS                                   00010000416
622231380104414110784527506210000000000#602470457083# Chloe Jackson           1121042880000417
705Iguanasaber bonus pay for amazing work on #OSS                                  00010000417
622231380104166873132667315800000000000#436017417772# David Anderson          1121042880000418
705Vulturesoft bonus pay for amazing work on #OSS                                  00010000418
622231380104600173867067876110000000000#521763663442# Mia Miller              1121042880000419
705Spidergravel bonus pay for amazing work on #OSS                                 00010000419
622231380104815244844531448820000000000#536447232785# Natalie Garcia          1121042880000420
705Gamblergiant bonus pay for amazing work on #OSS                                 00010000420
622231380104261553247573683750000000000#875428403625# Sophia Williams         1121042880000421
705Raptorbutter bonus pay for amazing work on #OSS                                 00010000421
622231380104447676323266376760000000000#577015583708# Lily Harris             1121042880000422
705Hornglass bonus pay for amazing work on #OSS                                    00010000422
622231380104026866621127868130000000000#567361081783# Addison Harris          1121042880000423
705Daggerspectrum bonus pay for amazing work on #OSS                               00010000423
622231380104435853063528712020000000000#575582507680# Aubrey Martinez         1121042880000424
705Scarertime bonus pay for amazing work on #OSS                                   00010000424
622231380104026417185027273010000000000#245863863302# Charlotte Taylor        1121042880000425
705Dogcyber bonus pay for amazing work on #OSS                                     00010000425
622231380104517865248620517850000000000#487304773572# Elizabeth White         1121042880000426
705Spearmalachite bonus pay for amazing work on #OSS                               00010000426
622231380104740446063415713850000000000#844124488424# Lily Garcia             1121042880000427
705Cockatoowalnut bonus pay for amazing work on #OSS                               00010000427
622231380104215206477307213110000000000#631278773560# Jayden Robinson         1121042880000428
705Frightgreen bonus pay for amazing work on #OSS                                  00010000428
622231380104403271507270057480000000000#754664675138# Jayden Garcia           1121042880000429
705Ringerchip bonus pay for amazing work on #OSS                                   00010000429
622231380104366648214318530450000000000#715821627627# Charlotte Smith         1121042880000430
705Salmonrelic bonus pay for amazing work on #OSS                                  00010000430
622231380104882271858166782880000000000#173745240178# Mia Jones               1121042880000431
705Apenickel bonus pay for amazing work on #OSS                                    00010000431
622231380104307322286046067740000000000#402246147238# James Robinson          1121042880000432
705Divermeteor bonus pay for amazing work on #OSS                                  00010000432
622231380104828436681407546370000000000#328051632408# Lily Johnson            1121042880000433
705Lordfoam bonus pay for amazing work on #OSS                                     00010000433
622231380104732137307468633750000000000#548057763332# Zoey Smith              1121042880000434
705Thumbnotch bonus pay for amazing work on #OSS                                   00010000434
622231380104275858315710045330000000000#073531785483# Emily White             1121042880000435
705Cougarruby bonus pay for amazing work on #OSS                                   00010000435
622231380104216074548627042600000000000#416137122785# Ava Davis               1121042880000436
705Ogrequiver bonus pay for amazing work on #OSS                                   00010000436
622231380104772106538168388400000000000#360551722136# Michael Wilson          1121042880000437
705Gamblerdirt bonus pay for amazing work on #OSS                                  00010000437
622231380104863635458846766230000000000#672082212225# Sofia Davis             1121042880000438
705Terrierpeat bonus pay for amazing work on #OSS                                  00010000438
622231380104327705745862026840000000000#610413661384# Matthew Harris          1121042880000439
705Gorillatreasure bonus pay for amazing work on #OSS                              00010000439
622231380104485477215138053340000000000#461553061488# Matthew Moore           1121042880000440
705Unicorngreen bonus pay for amazing work on #OSS                                 00010000440
622231380104581672322185088880000000000#470241850614# Daniel Martinez         1121042880000441
705Sparrowsalt bonus pay for amazing work on #OSS                                  00010000441
622231380104473772061386811830000000000#056003326487# Sofia Brown             1121042880000442
705Princewave bonus pay for amazing work on #OSS                                   00010000442
622231380104047521240038446100000000000#336073765110# Aiden Thomas            1121042880000443
705Twisterrift bonus pay for amazing work on #OSS                                  00010000443
622231380104274406601810001220000000000#170885882888# Elijah Robinson         1121042880000444
705Palmjewel bonus pay for amazing work on #OSS                                    00010000444
622231380104235704356166060010000000000#523611418072# Ava Moore               1121042880000445
705Chillerpetal bonus pay for amazing work on #OSS                                 00010000445
622231380104161272841825175660000000000#536451141764# Mason Jackson           1121042880000446
705Wingvivid bonus pay for amazing work on #OSS                                    00010000446
622231380104843061103705854840000000000#037332868353# Michael Moore           1121042880000447
705Pigquasar bonus pay for amazing work on #OSS                                    00010000447
622231380104335267226424073850000000000#230842880246# Andrew Jackson          1121042880000448
705Shriekerwarp bonus pay for amazing work on #OSS                                 00010000448
622231380104023267224870422510000000000#522544371605# Sophia Garcia           1121042880000449
705Scarerivy bonus pay for amazing work on #OSS                                    00010000449
622231380104302607530227865620000000000#448332400116# Michael Taylor          1121042880000450
705Piratecliff bonus pay for amazing work on #OSS                                  00010000450
622231380104843810006172784530000000000#628207100466# Elizabeth Miller        1121042880000451
705Ladyflax bonus pay for amazing work on #OSS                                     00010000451
622231380104157472003413154410000000000#545502771754# Joshua Moore            1121042880000452
705Songdust bonus pay for amazing work on #OSS                                     00010000452
622231380104263546364520046410000000000#322706067724# Abigail Harris          1121042880000453
705Snapperpeat bonus pay for amazing work on #OSS                                  00010000453
622231380104121812681306122550000000000#480814522621# Mia Johnson             1121042880000454
705Antblaze bonus pay for amazing work on #OSS                                     00010000454
622231380104280387288245334320000000000#354703512655# Madison Thomas          1121042880000455
705Storkflint bonus pay for amazing work on #OSS                                   00010000455
622231380104533123025766541260000000000#377820782060# Emma Smith              1121042880000456
705Razorbranch bonus pay for amazing work on #OSS                                  00010000456
622231380104117680868478473010000000000#213034344750# David Davis             1121042880000457
705Hornrose bonus pay for amazing work on #OSS                                     00010000457
622231380104065048742613604380000000000#303252322111# Daniel Thompson         1121042880000458
705Apepink bonus pay for amazing work on #OSS                                      00010000458
622231380104738414331103272720000000000#706557785060# Anthony White           1121042880000459
705Legsautumn bonus pay for amazing work on #OSS                                   00010000459
622231380104332525387268564260000000000#880162431564# Madison Anderson        1121042880000460
705Slicerrift bonus pay for amazing work on #OSS                                   00010000460
622231380104160225440211387050000000000#676203600287# Anthony Taylor          1121042880000461
705Mindchocolate bonus pay for amazing work on #OSS                                00010000461
622231380104704063046170320720000000000#845650847534# Aubrey Brown            1121042880000462
705Eatercoconut bonus pay for amazing work on #OSS                                 00010000462
622231380104517750652126330640000000000#356125737317# Sofia Martinez          1121042880000463
705Unicornveil bonus pay for amazing work on #OSS                                  00010000463
622231380104270270833254628460000000000#454615751200# Daniel White            1121042880000464
705Facemalachite bonus pay for amazing work on #OSS                                00010000464
622231380104744784228587207230000000000#758403224247# Matthew Martin          1121042880000465
705Toeflower bonus pay for amazing work on #OSS                                    00010000465
622231380104205748080355660710000000000#521012657422# Isabella Robinson       1121042880000466
705Slicerwind bonus pay for amazing work on #OSS                                   00010000466
622231380104651146757236151430000000000#444252523426# Emma Garcia             1121042880000467
705Princessthorn bonus pay for amazing work on #OSS                                00010000467
622231380104367332168440671620000000000#302281277172# Madison Moore           1121042880000468
705Whimseysolar bonus pay for amazing work on #OSS                                 00010000468
622231380104144555564861122150000000000#035683826077# Sophia Johnson          1121042880000469
705Thornnoon bonus pay for amazing work on #OSS                                    00010000469
622231380104433676060017716220000000000#765360024474# Anthony Jackson         1121042880000470
705Saverquilt bonus pay for amazing work on #OSS                                   00010000470
622231380104888844655666588460000000000#344061241845# Anthony Thompson        1121042880000471
705Whipluck bonus pay for amazing work on #OSS                                     00010000471
622231380104165184178713650820000000000#678005835203# Matthew Miller          1121042880000472
705Touchfrill bonus pay for amazing work on #OSS                                   00010000472
622231380104628587018856382730000000000#015607781573# Sophia Davis            1121042880000473
705Deathfeather bonus pay for amazing work on #OSS                                 00010000473
622231380104670102811313480720000000000#024721484137# Alexander Garcia        1121042880000474
705Thiefclover bonus pay for amazing work on #OSS                                  00010000474
622231380104204368182842587360000000000#713530624116# Addison Thompson        1121042880000475
705Legendthorn bonus pay for amazing work on #OSS                                  00010000475
622231380104834674457588638210000000000#302051445733# Jayden Jones            1121042880000476
705Chillsunrise bonus pay for amazing work on #OSS                                 00010000476
622231380104562862547086164360000000000#557007264336# Joseph Wilson           1121042880000477
705Keeperdandelion bonus pay for amazing work on #OSS                              00010000477
622231380104660481806122202860000000000#357244246548# Ella Martinez           1121042880000478
705Raptorequinox bonus pay for amazing work on #OSS                                00010000478
622231380104548042476358847300000000000#525572130632# Alexander Miller        1121042880000479
705Geckosprinkle bonus pay for amazing work on #OSS                                00010000479
622231380104708644472773562120000000000#750500815631# Joseph Martinez         1121042880000480
705Gazellejewel bonus pay for amazing work on #OSS                                 00010000480
622231380104820784774404303880000000000#164237810858# Emma Jones              1121042880000481
705Spurthorn bonus pay for amazing work on #OSS                                    00010000481
622231380104127110611306760540000000000#344083437520# Ethan Moore             1121042880000482
705Crowshy bonus pay for amazing work on #OSS                                      00010000482
622231380104373510236422587830000000000#602375615546# Mia Martinez            1121042880000483
705Cockatoosummer bonus pay for amazing work on #OSS                               00010000483
622231380104660801153257154350000000000#070847814326# Sofia Williams          1121042880000484
705Voicelake bonus pay for amazing work on #OSS                                    00010000484
622231380104678410014060873840000000000#622424285177# Matthew Garcia          1121042880000485
705Ridgenorth bonus pay for amazing work on #OSS                                   00010000485
622231380104518667856738737130000000000#860210338110# Ava Williams            1121042880000486
705Viperholly bonus pay for amazing work on #OSS                                   00010000486
622231380104718815434361747020000000000#066060136433# Matthew Williams        1121042880000487
705Boltskitter bonus pay for amazing work on #OSS                                  00010000487
622231380104370527424606425110000000000#231111302126# Aubrey White            1121042880000488
705Mistressdull bonus pay for amazing work on #OSS                                 00010000488
622231380104187654072504135550000000000#853736504484# Jayden Miller           1121042880000489
705Fingertabby bonus pay for amazing work on #OSS                                  00010000489
622231380104223103044672010580000000000#522058682815# Lily Garcia             1121042880000490
705Watcherbrass bonus pay for amazing work on #OSS                                 00010000490
622231380104216853118320188640000000000#848525475776# James Anderson          1121042880000491
705Roverrowan bonus pay for amazing work on #OSS                                   00010000491
622231380104055808345632416870000000000#867410832422# Emily Johnson           1121042880000492
705Bootvivid bonus pay for amazing work on #OSS                                    00010000492
622231380104471518543041838560000000000#041061764860# Ella Martinez           1121042880000493
705Crownmica bonus pay for amazing work on #OSS                                    00010000493
622231380104187811073568420310000000000#683477181267# Michael Harris          1121042880000494
705Eaterplump bonus pay for amazing work on #OSS                                   00010000494
622231380104281400635872240020000000000#218748221501# Elizabeth Jackson       1121042880000495
705Otterwinter bonus pay for amazing work on #OSS                                  00010000495
622231380104233063387832131460000000000#167422151747# Matthew Brown           1121042880000496
705Armzircon bonus pay for amazing work on #OSS                                    00010000496
622231380104788786330565836530000000000#313401442430# Joshua Robinson         1121042880000497
705Cloudkeen bonus pay for amazing work on #OSS                                    00010000497
622231380104752455772504744650000000000#068417820107# Elijah Davis            1121042880000498
705Weedbrass bonus pay for amazing work on #OSS                                    00010000498
622231380104584037348007568080000000000#810656226676# Ethan Martinez          1121042880000499
705Voiceblue bonus pay for amazing work on #OSS                                    00010000499
622231380104883442323513764240000000000#366551882186# Andrew Harris           1121042880000500
705Unicornquark bonus pay for amazing work on #OSS                                 00010000500
622231380104686872020433048800000000000#560522588352# Mia Anderson            1121042880000501
705Eaglesolstice bonus pay for amazing work on #OSS                                00010000501
622231380104186051667541364280000000000#433425815332# Aiden Davis             1121042880000502
705Footsteel bonus pay for amazing work on #OSS                                    00010000502
622231380104608404704605323380000000000#272525063221# Emma White              1121042880000503
705Burnfield bonus pay for amazing work on #OSS                                    00010000503
622231380104712462172442382720000000000#801524641127# Andrew Robinson         1121042880000504
705Boltalabaster bonus pay for amazing work on #OSS                                00010000504
622231380104377363751738884080000000000#744548524145# Elizabeth Harris        1121042880000505
705Salmonstream bonus pay for amazing work on #OSS                                 00010000505
622231380104161336727405854810000000000#688611027216# Ella Smith              1121042880000506
705Jawred bonus pay for amazing work on #OSS                                       00010000506
622231380104463375000722123270000000000#881705512245# Abigail White           1121042880000507
705Pantherspring bonus pay for amazing work on #OSS                                00010000507
622231380104347073055407488280000000000#286285804275# Joseph Jones            1121042880000508
705Lionfir bonus pay for amazing work on #OSS                                      00010000508
622231380104748365686751031720000000000#854746615885# Addison Johnson         1121042880000509
705Snagglefootmountain bonus pay for amazing work on #OSS                          00010000509
622231380104126205415006636330000000000#162224147228# Andrew Thompson         1121042880000510
705Catchermeteor bonus pay for amazing work on #OSS                                00010000510
622231380104278874247382174780000000000#714745318424# Zoey Harris             1121042880000511
705Centaurstorm bonus pay for amazing work on #OSS                                 00010000511
622231380104875055803043846270000000000#503878645510# David Anderson          1121042880000512
705Bellruby bonus pay for amazing work on #OSS                                     00010000512
622231380104333052185682657000000000000#006441864627# Isabella Jackson        1121042880000513
705Samuraiblack bonus pay for amazing work on #OSS                                 00010000513
622231380104441232130525682230000000000#885113867882# Elijah Johnson          1121042880000514
705Lioniridescent bonus pay for amazing work on #OSS                               00010000514
622231380104648034564626568060000000000#172851124377# Sofia White             1121042880000515
705Cougarnight bonus pay for amazing work on #OSS                                  00010000515
622231380104811883664337771220000000000#014405644202# Joseph Williams         1121042880000516
705Cowlwarp bonus pay for amazing work on #OSS                                     00010000516
622231380104756164451888607620000000000#158353675542# Elijah White            1121042880000517
705Facehickory bonus pay for amazing work on #OSS                                  00010000517
622231380104414548500882874080000000000#727568731827# Daniel Jones            1121042880000518
705Herontwisty bonus pay for amazing work on #OSS                                  00010000518
622231380104734671527601701770000000000#321000234138# Andrew Robinson         1121042880000519
705Oriolesilent bonus pay for amazing work on #OSS                                 00010000519
622231380104465214173604646500000000000#645821848646# Chloe Thomas            1121042880000520
705Jaycat bonus pay for amazing work on #OSS                                       00010000520
622231380104088518410835420210000000000#676543272612# Daniel White            1121042880000521
705Carppinto bonus pay for amazing work on #OSS                                    00010000521
622231380104317766075120715570000000000#342847128117# Joshua Brown            1121042880000522
705Whaleclever bonus pay for amazing work on #OSS                                  00010000522
622231380104645881701576130010000000000#000545113540# Elizabeth Wilson        1121042880000523
705Hairsoft bonus pay for amazing work on #OSS                                     00010000523
622231380104825404524746433850000000000#830767027243# James Martin            1121042880000524
705Hisserproud bonus pay for amazing work on #OSS                                  00010000524
622231380104136617362633766040000000000#736814326756# David White             1121042880000525
705Fliertranslucent bonus pay for amazing work on #OSS                             00010000525
